{
  "transactions": [
    {
      "hash": "0xe236b75558bda76bfaefa9932d6c621ed85c64a6e4b60f11033521ff0fbe32f6",
      "transactionType": "CALL",
      "contractName": null,
      "contractAddress": "0x5c602c98ad2434c86d83f956bf3b22323dde7f85",
      "function": "approve(address,uint256)",
      "arguments": [
        "0x8B5bcC363ddE2614281aD875bad385E0A785D3B9",
        "115792089237316195423570985008687907853269984665640564039457584007913129639935"
      ],
      "transaction": {
        "from": "0x19c50bfd73627b35f2ef3f7b0755229d42cd56a8",
        "to": "0x5c602c98ad2434c86d83f956bf3b22323dde7f85",
        "gas": "0x93a5",
        "value": "0x0",
        "input": "0x095ea7b30000000000000000000000008b5bcc363dde2614281ad875bad385e0a785d3b9ffffffffffffffffffffffffffffffffffffffffffffffffffffffffffffffff",
        "nonce": "0x79",
        "chainId": "0x14a34"
      },
      "additionalContracts": [],
      "isFixedGasLimit": false
    },
    {
      "hash": "0x763540db44e4ee0776baf7ebdafbac82db6ee5798c02b5e27b1bf76a3531c7cd",
      "transactionType": "CALL",
      "contractName": null,
      "contractAddress": "0xf51980a3455732b35852362e8a749ac67399fadf",
      "function": "approve(address,uint256)",
      "arguments": [
        "0x8B5bcC363ddE2614281aD875bad385E0A785D3B9",
        "115792089237316195423570985008687907853269984665640564039457584007913129639935"
      ],
      "transaction": {
        "from": "0x19c50bfd73627b35f2ef3f7b0755229d42cd56a8",
        "to": "0xf51980a3455732b35852362e8a749ac67399fadf",
        "gas": "0x93a5",
        "value": "0x0",
        "input": "0x095ea7b30000000000000000000000008b5bcc363dde2614281ad875bad385e0a785d3b9ffffffffffffffffffffffffffffffffffffffffffffffffffffffffffffffff",
        "nonce": "0x7a",
        "chainId": "0x14a34"
      },
      "additionalContracts": [],
      "isFixedGasLimit": false
    },
    {
      "hash": "0x2b5c70817993d8f9fea2188f82213ea29ffad39c123a40bd45c1505e06f43d5d",
      "transactionType": "CALL",
      "contractName": null,
      "contractAddress": "0x8b5bcc363dde2614281ad875bad385e0a785d3b9",
      "function": "swap((address,address,uint24,int24,address),(bool,int256,uint160),(bool,bool),bytes)",
      "arguments": [
        "(0x5c602C98Ad2434c86D83f956bF3B22323dDe7f85, 0xF51980A3455732B35852362E8a749ac67399FAdF, 3000, 60, 0xcE7e5Acc2e1c3095B52846cf07bAfA1b88540040)",
        "(false, 100000000000000000000, 1461446703485210103287273052203988822378723970341)",
        "(false, false)",
        "0x"
      ],
      "transaction": {
        "from": "0x19c50bfd73627b35f2ef3f7b0755229d42cd56a8",
        "to": "0x8b5bcc363dde2614281ad875bad385e0a785d3b9",
        "gas": "0xbb317",
        "value": "0x0",
        "input": "0x2229d0b40000000000000000000000005c602c98ad2434c86d83f956bf3b22323dde7f85000000000000000000000000f51980a3455732b35852362e8a749ac67399fadf0000000000000000000000000000000000000000000000000000000000000bb8000000000000000000000000000000000000000000000000000000000000003c000000000000000000000000ce7e5acc2e1c3095b52846cf07bafa1b8854004000000000000000000000000000000000000000000000000000000000000000000000000000000000000000000000000000000000000000056bc75e2d63100000000000000000000000000000fffd8963efd1fc6a506488495d951d5263988d250000000000000000000000000000000000000000000000000000000000000000000000000000000000000000000000000000000000000000000000000000000000000000000000000000000000000000000000000000000000000000000001600000000000000000000000000000000000000000000000000000000000000000",
        "nonce": "0x7b",
        "chainId": "0x14a34"
      },
      "additionalContracts": [],
      "isFixedGasLimit": false
    }
  ],
  "receipts": [
    {
      "status": "0x1",
      "cumulativeGasUsed": "0x68b123",
      "logs": [
        {
          "address": "0x5c602c98ad2434c86d83f956bf3b22323dde7f85",
          "topics": [
            "0x8c5be1e5ebec7d5bd14f71427d1e84f3dd0314c0f7b2291e5b200ac8c7c3b925",
            "0x00000000000000000000000019c50bfd73627b35f2ef3f7b0755229d42cd56a8",
            "0x0000000000000000000000008b5bcc363dde2614281ad875bad385e0a785d3b9"
          ],
          "data": "0xffffffffffffffffffffffffffffffffffffffffffffffffffffffffffffffff",
          "blockHash": "0x95947b252827ab79fa97f0d33b266731e780527dcf0a8751f226aac7e0ca98ad",
          "blockNumber": "0x18a4a91",
          "blockTimestamp": "0x6827f402",
          "transactionHash": "0xe236b75558bda76bfaefa9932d6c621ed85c64a6e4b60f11033521ff0fbe32f6",
          "transactionIndex": "0x2a",
          "logIndex": "0x57",
          "removed": false
        }
      ],
      "logsBloom": "0x00000000000000000000000000000000000200000000001000000010000000000004000000000080000000000000000000000000000000010000000000200000000000000000000000000000000000000000000000000000000000000000000000000000000000000000000000000000000000000000000000000000002000000000000000000000000000080000000000000000000000000000000000000000020000000000000000000000000000000000000000000000000000000000000000000000000000000000000000000000000000000000000000000000000000000010000000000000000000000000000000000000000000000000001000000000",
      "type": "0x2",
      "transactionHash": "0xe236b75558bda76bfaefa9932d6c621ed85c64a6e4b60f11033521ff0fbe32f6",
      "transactionIndex": "0x2a",
      "blockHash": "0x95947b252827ab79fa97f0d33b266731e780527dcf0a8751f226aac7e0ca98ad",
      "blockNumber": "0x18a4a91",
      "gasUsed": "0x6ae5",
      "effectiveGasPrice": "0xf4627",
      "from": "0x19c50bfd73627b35f2ef3f7b0755229d42cd56a8",
      "to": "0x5c602c98ad2434c86d83f956bf3b22323dde7f85",
      "contractAddress": null,
      "l1BaseFeeScalar": "0x44d",
      "l1BlobBaseFee": "0x1",
      "l1BlobBaseFeeScalar": "0xa118b",
      "l1Fee": "0x84be9d",
      "l1GasPrice": "0x4b5a9f",
      "l1GasUsed": "0x640"
    },
    {
      "status": "0x1",
      "cumulativeGasUsed": "0x691c08",
      "logs": [
        {
          "address": "0xf51980a3455732b35852362e8a749ac67399fadf",
          "topics": [
            "0x8c5be1e5ebec7d5bd14f71427d1e84f3dd0314c0f7b2291e5b200ac8c7c3b925",
            "0x00000000000000000000000019c50bfd73627b35f2ef3f7b0755229d42cd56a8",
            "0x0000000000000000000000008b5bcc363dde2614281ad875bad385e0a785d3b9"
          ],
          "data": "0xffffffffffffffffffffffffffffffffffffffffffffffffffffffffffffffff",
          "blockHash": "0x226258273fceab1251a075cc779750592ffef594c731625c00dac4b2587f3408",
          "blockNumber": "0x18a4a91",
          "blockTimestamp": "0x6827f402",
          "transactionHash": "0x763540db44e4ee0776baf7ebdafbac82db6ee5798c02b5e27b1bf76a3531c7cd",
          "transactionIndex": "0x2b",
          "logIndex": "0x58",
          "removed": false
        }
      ],
      "logsBloom": "0x00000000000000000000000000000000000200000000000000000010000000000004000000000080000000000000000000000000000000010000000000200000000000000000000000000000000000000800000000000000000000000000000000000000000000000000000000000200000000000000000000000000000000000000000000000000000000000000000000000000000000000000000000000000020200000000000000000000000000000000000000000000000000000000000000000000000000000000000000000000000000000000000000000000000000000010000000000000000000000000000000000000000000000000001000000000",
      "type": "0x2",
      "transactionHash": "0x763540db44e4ee0776baf7ebdafbac82db6ee5798c02b5e27b1bf76a3531c7cd",
      "transactionIndex": "0x2b",
      "blockHash": "0x226258273fceab1251a075cc779750592ffef594c731625c00dac4b2587f3408",
      "blockNumber": "0x18a4a91",
      "gasUsed": "0x6ae5",
      "effectiveGasPrice": "0xf4627",
      "from": "0x19c50bfd73627b35f2ef3f7b0755229d42cd56a8",
      "to": "0xf51980a3455732b35852362e8a749ac67399fadf",
      "contractAddress": null,
      "l1BaseFeeScalar": "0x44d",
      "l1BlobBaseFee": "0x1",
      "l1BlobBaseFeeScalar": "0xa118b",
      "l1Fee": "0x84be9d",
      "l1GasPrice": "0x4b5a9f",
      "l1GasUsed": "0x640"
    },
    {
      "status": "0x1",
      "cumulativeGasUsed": "0x71946d",
      "logs": [
        {
          "address": "0x05e73354cfdd6745c338b50bcfdfa3aa6fa03408",
          "topics": [
            "0x40e9cecb9f5f1f1c5b9c97dec2917b7ee92e57ba5563708daca94dd84ad7112f",
            "0x60ab7380ad3be47445bc04450117dca7e25600ef591e57e3bb0f484c86c03e51",
            "0x0000000000000000000000008b5bcc363dde2614281ad875bad385e0a785d3b9"
          ],
          "data": "0x0000000000000000000000000000000000000000000000056bc75e2d63100000fffffffffffffffffffffffffffffffffffffffffffffffae11a0ebe1a47e8650000000000000000000000000000000000000000f86f403bef93ed05383566e500000000000000000000000000000000000000000089d982cf2ae95f9be955f9fffffffffffffffffffffffffffffffffffffffffffffffffffffffffffffda80000000000000000000000000000000000000000000000000000000000000bb8",
          "blockHash": "0x226258273fceab1251a075cc779750592ffef594c731625c00dac4b2587f3408",
          "blockNumber": "0x18a4a91",
          "blockTimestamp": "0x6827f402",
          "transactionHash": "0x2b5c70817993d8f9fea2188f82213ea29ffad39c123a40bd45c1505e06f43d5d",
          "transactionIndex": "0x2c",
          "logIndex": "0x59",
          "removed": false
        },
        {
          "address": "0xf51980a3455732b35852362e8a749ac67399fadf",
          "topics": [
            "0xddf252ad1be2c89b69c2b068fc378daa952ba7f163c4a11628f55a4df523b3ef",
            "0x00000000000000000000000019c50bfd73627b35f2ef3f7b0755229d42cd56a8",
            "0x00000000000000000000000005e73354cfdd6745c338b50bcfdfa3aa6fa03408"
          ],
          "data": "0x0000000000000000000000000000000000000000000000051ee5f141e5b8179b",
          "blockHash": "0x226258273fceab1251a075cc779750592ffef594c731625c00dac4b2587f3408",
          "blockNumber": "0x18a4a91",
          "blockTimestamp": "0x6827f402",
          "transactionHash": "0x2b5c70817993d8f9fea2188f82213ea29ffad39c123a40bd45c1505e06f43d5d",
          "transactionIndex": "0x2c",
          "logIndex": "0x5a",
          "removed": false
        },
        {
          "address": "0x5c602c98ad2434c86d83f956bf3b22323dde7f85",
          "topics": [
            "0xddf252ad1be2c89b69c2b068fc378daa952ba7f163c4a11628f55a4df523b3ef",
            "0x00000000000000000000000005e73354cfdd6745c338b50bcfdfa3aa6fa03408",
            "0x00000000000000000000000019c50bfd73627b35f2ef3f7b0755229d42cd56a8"
          ],
          "data": "0x0000000000000000000000000000000000000000000000056bc75e2d63100000",
          "blockHash": "0x226258273fceab1251a075cc779750592ffef594c731625c00dac4b2587f3408",
          "blockNumber": "0x18a4a91",
          "blockTimestamp": "0x6827f402",
          "transactionHash": "0x2b5c70817993d8f9fea2188f82213ea29ffad39c123a40bd45c1505e06f43d5d",
          "transactionIndex": "0x2c",
          "logIndex": "0x5b",
          "removed": false
        }
      ],
      "logsBloom": "0x00000000004000000000000000000000000200000000001000000010000000000004000100000080000000000000000000000000040000010000000000000000000000000010000000000008000000000800000000100020000000000000000000200000000000000000000000000200000000000000000000000010002000000000000004000000000000080000000000000000000200000000000000000000000200000000000000000000000000000000000000000000000000000000000000000002001000000000000000000000000000000000000000000000000000000000000000000000004000000800000000000000000000000000001000000000",
      "type": "0x2",
      "transactionHash": "0x2b5c70817993d8f9fea2188f82213ea29ffad39c123a40bd45c1505e06f43d5d",
      "transactionIndex": "0x2c",
      "blockHash": "0x226258273fceab1251a075cc779750592ffef594c731625c00dac4b2587f3408",
      "blockNumber": "0x18a4a91",
      "gasUsed": "0x87865",
      "effectiveGasPrice": "0xf4627",
      "from": "0x19c50bfd73627b35f2ef3f7b0755229d42cd56a8",
      "to": "0x8b5bcc363dde2614281ad875bad385e0a785d3b9",
      "contractAddress": null,
      "l1BaseFeeScalar": "0x44d",
      "l1BlobBaseFee": "0x1",
      "l1BlobBaseFeeScalar": "0xa118b",
      "l1Fee": "0xea659e",
      "l1GasPrice": "0x4b5a9f",
      "l1GasUsed": "0xb09"
    }
  ],
  "libraries": [],
  "pending": [],
  "returns": {},
  "timestamp": 1747448830,
  "chain": 84532,
  "commit": "18ecf0c"
}