{
  "transactions": [
    {
      "hash": "0xae5d9ee3762bacadd3b54915690e18096891cd1c777a0a9ed6af61a9f52e5211",
      "transactionType": "CALL",
      "contractName": null,
      "contractAddress": "0x5c602c98ad2434c86d83f956bf3b22323dde7f85",
      "function": "approve(address,uint256)",
      "arguments": [
        "0x8B5bcC363ddE2614281aD875bad385E0A785D3B9",
        "115792089237316195423570985008687907853269984665640564039457584007913129639935"
      ],
      "transaction": {
        "from": "0x19c50bfd73627b35f2ef3f7b0755229d42cd56a8",
        "to": "0x5c602c98ad2434c86d83f956bf3b22323dde7f85",
        "gas": "0x10e04",
        "value": "0x0",
        "input": "0x095ea7b30000000000000000000000008b5bcc363dde2614281ad875bad385e0a785d3b9ffffffffffffffffffffffffffffffffffffffffffffffffffffffffffffffff",
        "nonce": "0x73",
        "chainId": "0x14a34"
      },
      "additionalContracts": [],
      "isFixedGasLimit": false
    },
    {
      "hash": "0x6a9c0179c3ed9f0bcb6af4908293b42c2f1e4aa654645962b2521cee94dc54c3",
      "transactionType": "CALL",
      "contractName": null,
      "contractAddress": "0xf51980a3455732b35852362e8a749ac67399fadf",
      "function": "approve(address,uint256)",
      "arguments": [
        "0x8B5bcC363ddE2614281aD875bad385E0A785D3B9",
        "115792089237316195423570985008687907853269984665640564039457584007913129639935"
      ],
      "transaction": {
        "from": "0x19c50bfd73627b35f2ef3f7b0755229d42cd56a8",
        "to": "0xf51980a3455732b35852362e8a749ac67399fadf",
        "gas": "0x10e04",
        "value": "0x0",
        "input": "0x095ea7b30000000000000000000000008b5bcc363dde2614281ad875bad385e0a785d3b9ffffffffffffffffffffffffffffffffffffffffffffffffffffffffffffffff",
        "nonce": "0x74",
        "chainId": "0x14a34"
      },
      "additionalContracts": [],
      "isFixedGasLimit": false
    },
    {
      "hash": "0xc22e564951fbbf0f30c9bdc3900237e56a688a793797af8cc05775b922cf0bc8",
      "transactionType": "CALL",
      "contractName": null,
      "contractAddress": "0x8b5bcc363dde2614281ad875bad385e0a785d3b9",
      "function": "swap((address,address,uint24,int24,address),(bool,int256,uint160),(bool,bool),bytes)",
      "arguments": [
        "(0x5c602C98Ad2434c86D83f956bF3B22323dDe7f85, 0xF51980A3455732B35852362E8a749ac67399FAdF, 3000, 60, 0xcE7e5Acc2e1c3095B52846cf07bAfA1b88540040)",
        "(true, 100000000000000000000, 4295128740)",
        "(false, false)",
        "0x"
      ],
      "transaction": {
        "from": "0x19c50bfd73627b35f2ef3f7b0755229d42cd56a8",
        "to": "0x8b5bcc363dde2614281ad875bad385e0a785d3b9",
        "gas": "0x9d5d7",
        "value": "0x0",
        "input": "0x2229d0b40000000000000000000000005c602c98ad2434c86d83f956bf3b22323dde7f85000000000000000000000000f51980a3455732b35852362e8a749ac67399fadf0000000000000000000000000000000000000000000000000000000000000bb8000000000000000000000000000000000000000000000000000000000000003c000000000000000000000000ce7e5acc2e1c3095b52846cf07bafa1b8854004000000000000000000000000000000000000000000000000000000000000000010000000000000000000000000000000000000000000000056bc75e2d6310000000000000000000000000000000000000000000000000000000000001000276a40000000000000000000000000000000000000000000000000000000000000000000000000000000000000000000000000000000000000000000000000000000000000000000000000000000000000000000000000000000000000000000001600000000000000000000000000000000000000000000000000000000000000000",
        "nonce": "0x75",
        "chainId": "0x14a34"
      },
      "additionalContracts": [],
      "isFixedGasLimit": false
    }
  ],
  "receipts": [
    {
      "status": "0x1",
      "cumulativeGasUsed": "0x198eae",
      "logs": [
        {
          "address": "0x5c602c98ad2434c86d83f956bf3b22323dde7f85",
          "topics": [
            "0x8c5be1e5ebec7d5bd14f71427d1e84f3dd0314c0f7b2291e5b200ac8c7c3b925",
            "0x00000000000000000000000019c50bfd73627b35f2ef3f7b0755229d42cd56a8",
            "0x0000000000000000000000008b5bcc363dde2614281ad875bad385e0a785d3b9"
          ],
          "data": "0xffffffffffffffffffffffffffffffffffffffffffffffffffffffffffffffff",
          "blockHash": "0x936c0791035112136c5d44f32b7427957879bb68b9f5165df66e18e67ce950d7",
          "blockNumber": "0x18a4400",
          "blockTimestamp": "0x6827e6e0",
          "transactionHash": "0xae5d9ee3762bacadd3b54915690e18096891cd1c777a0a9ed6af61a9f52e5211",
          "transactionIndex": "0xc",
          "logIndex": "0x3e",
          "removed": false
        }
      ],
      "logsBloom": "0x00000000000000000000000000000000000200000000001000000010000000000004000000000080000000000000000000000000000000010000000000200000000000000000000000000000000000000000000000000000000000000000000000000000000000000000000000000000000000000000000000000000002000000000000000000000000000080000000000000000000000000000000000000000020000000000000000000000000000000000000000000000000000000000000000000000000000000000000000000000000000000000000000000000000000000010000000000000000000000000000000000000000000000000001000000000",
      "type": "0x2",
      "transactionHash": "0xae5d9ee3762bacadd3b54915690e18096891cd1c777a0a9ed6af61a9f52e5211",
      "transactionIndex": "0xc",
      "blockHash": "0x936c0791035112136c5d44f32b7427957879bb68b9f5165df66e18e67ce950d7",
      "blockNumber": "0x18a4400",
      "gasUsed": "0xb8a1",
      "effectiveGasPrice": "0xf45da",
      "from": "0x19c50bfd73627b35f2ef3f7b0755229d42cd56a8",
      "to": "0x5c602c98ad2434c86d83f956bf3b22323dde7f85",
      "contractAddress": null,
      "l1BaseFeeScalar": "0x44d",
      "l1BlobBaseFee": "0x1",
      "l1BlobBaseFeeScalar": "0xa118b",
      "l1Fee": "0x44bca",
      "l1GasPrice": "0x2702b",
      "l1GasUsed": "0x640"
    },
    {
      "status": "0x1",
      "cumulativeGasUsed": "0x1a474f",
      "logs": [
        {
          "address": "0xf51980a3455732b35852362e8a749ac67399fadf",
          "topics": [
            "0x8c5be1e5ebec7d5bd14f71427d1e84f3dd0314c0f7b2291e5b200ac8c7c3b925",
            "0x00000000000000000000000019c50bfd73627b35f2ef3f7b0755229d42cd56a8",
            "0x0000000000000000000000008b5bcc363dde2614281ad875bad385e0a785d3b9"
          ],
          "data": "0xffffffffffffffffffffffffffffffffffffffffffffffffffffffffffffffff",
          "blockHash": "0x391ed63c4d9fa1adc95d02bf8026cff517fce0a2a9e304045bde7578ae5dc835",
          "blockNumber": "0x18a4400",
          "blockTimestamp": "0x6827e6e0",
          "transactionHash": "0x6a9c0179c3ed9f0bcb6af4908293b42c2f1e4aa654645962b2521cee94dc54c3",
          "transactionIndex": "0xd",
          "logIndex": "0x3f",
          "removed": false
        }
      ],
      "logsBloom": "0x00000000000000000000000000000000000200000000000000000010000000000004000000000080000000000000000000000000000000010000000000200000000000000000000000000000000000000800000000000000000000000000000000000000000000000000000000000200000000000000000000000000000000000000000000000000000000000000000000000000000000000000000000000000020200000000000000000000000000000000000000000000000000000000000000000000000000000000000000000000000000000000000000000000000000000010000000000000000000000000000000000000000000000000001000000000",
      "type": "0x2",
      "transactionHash": "0x6a9c0179c3ed9f0bcb6af4908293b42c2f1e4aa654645962b2521cee94dc54c3",
      "transactionIndex": "0xd",
      "blockHash": "0x391ed63c4d9fa1adc95d02bf8026cff517fce0a2a9e304045bde7578ae5dc835",
      "blockNumber": "0x18a4400",
      "gasUsed": "0xb8a1",
      "effectiveGasPrice": "0xf45da",
      "from": "0x19c50bfd73627b35f2ef3f7b0755229d42cd56a8",
      "to": "0xf51980a3455732b35852362e8a749ac67399fadf",
      "contractAddress": null,
      "l1BaseFeeScalar": "0x44d",
      "l1BlobBaseFee": "0x1",
      "l1BlobBaseFeeScalar": "0xa118b",
      "l1Fee": "0x44bca",
      "l1GasPrice": "0x2702b",
      "l1GasUsed": "0x640"
    },
    {
      "status": "0x1",
      "cumulativeGasUsed": "0x2100e9",
      "logs": [
        {
          "address": "0x05e73354cfdd6745c338b50bcfdfa3aa6fa03408",
          "topics": [
            "0x40e9cecb9f5f1f1c5b9c97dec2917b7ee92e57ba5563708daca94dd84ad7112f",
            "0x60ab7380ad3be47445bc04450117dca7e25600ef591e57e3bb0f484c86c03e51",
            "0x0000000000000000000000008b5bcc363dde2614281ad875bad385e0a785d3b9"
          ],
          "data": "0x0000000000000000000000000000000000000000000000000000000000000000000000000000000000000000000000000000000000000000000000000000000000000000000000000000000000000000000000000000000000000001000276a40000000000000000000000000000000000000000000000000000000000000000fffffffffffffffffffffffffffffffffffffffffffffffffffffffffff276180000000000000000000000000000000000000000000000000000000000000bb8",
          "blockHash": "0x391ed63c4d9fa1adc95d02bf8026cff517fce0a2a9e304045bde7578ae5dc835",
          "blockNumber": "0x18a4400",
          "blockTimestamp": "0x6827e6e0",
          "transactionHash": "0xc22e564951fbbf0f30c9bdc3900237e56a688a793797af8cc05775b922cf0bc8",
          "transactionIndex": "0xe",
          "logIndex": "0x40",
          "removed": false
        },
        {
          "address": "0xce7e5acc2e1c3095b52846cf07bafa1b88540040",
          "topics": [
            "0x0f8c4c04acc4486819df1abdc949586d419ee599d206e10b30387cce45831b23",
            "0x60ab7380ad3be47445bc04450117dca7e25600ef591e57e3bb0f484c86c03e51"
          ],
          "data": "0x0000000000000000000000000000000000000000000000000000000000000001000000000000000000000000000000000000000000000000000000006827e6e00000000000000000000000000000000000000000000000000000000068293860",
          "blockHash": "0x391ed63c4d9fa1adc95d02bf8026cff517fce0a2a9e304045bde7578ae5dc835",
          "blockNumber": "0x18a4400",
          "blockTimestamp": "0x6827e6e0",
          "transactionHash": "0xc22e564951fbbf0f30c9bdc3900237e56a688a793797af8cc05775b922cf0bc8",
          "transactionIndex": "0xe",
          "logIndex": "0x41",
          "removed": false
        }
      ],
      "logsBloom": "0x00000000004000000000000000000000000000000000000000000010000000000004000100000000000000000000000000000000040000000000000000000000000000000000000000000000000000000000000000000020020000008000000000200000000000000000000000000000000000000000000000000000000000000000000004000000000000000000000000000000000200000000000000000000040200000000020000000000000000000000000000000000000000000000000000000000001000000000000000000000000000000000000000000000000000000000000000000000004000000000000000000000000000000000001000000002",
      "type": "0x2",
      "transactionHash": "0xc22e564951fbbf0f30c9bdc3900237e56a688a793797af8cc05775b922cf0bc8",
      "transactionIndex": "0xe",
      "blockHash": "0x391ed63c4d9fa1adc95d02bf8026cff517fce0a2a9e304045bde7578ae5dc835",
      "blockNumber": "0x18a4400",
      "gasUsed": "0x6b99a",
      "effectiveGasPrice": "0xf45da",
      "from": "0x19c50bfd73627b35f2ef3f7b0755229d42cd56a8",
      "to": "0x8b5bcc363dde2614281ad875bad385e0a785d3b9",
      "contractAddress": null,
      "l1BaseFeeScalar": "0x44d",
      "l1BlobBaseFee": "0x1",
      "l1BlobBaseFeeScalar": "0xa118b",
      "l1Fee": "0x7432f",
      "l1GasPrice": "0x2702b",
      "l1GasUsed": "0xa90"
    }
  ],
  "libraries": [],
  "pending": [],
  "returns": {},
  "timestamp": 1747445467,
  "chain": 84532,
  "commit": "18ecf0c"
}