{
  "transactions": [
    {
      "hash": "0xe10c3c4555a9f2c05f91b194a0199a49c30ac0f2d372931bdad2484b1efd1409",
      "transactionType": "CALL",
      "contractName": null,
      "contractAddress": "0x5c602c98ad2434c86d83f956bf3b22323dde7f85",
      "function": "approve(address,uint256)",
      "arguments": [
        "0x5b73C5498c1E3b4dbA84de0F1833c4a029d90519",
        "1000000000000000"
      ],
      "transaction": {
        "from": "0x19c50bfd73627b35f2ef3f7b0755229d42cd56a8",
        "to": "0x5c602c98ad2434c86d83f956bf3b22323dde7f85",
        "gas": "0x10c3c",
        "value": "0x0",
        "input": "0x095ea7b30000000000000000000000005b73c5498c1e3b4dba84de0f1833c4a029d9051900000000000000000000000000000000000000000000000000038d7ea4c68000",
        "nonce": "0x59",
        "chainId": "0x14a34"
      },
      "additionalContracts": [],
      "isFixedGasLimit": false
    }
  ],
  "receipts": [
    {
      "status": "0x1",
      "cumulativeGasUsed": "0xc4ea15",
      "logs": [
        {
          "address": "0x5c602c98ad2434c86d83f956bf3b22323dde7f85",
          "topics": [
            "0x8c5be1e5ebec7d5bd14f71427d1e84f3dd0314c0f7b2291e5b200ac8c7c3b925",
            "0x00000000000000000000000019c50bfd73627b35f2ef3f7b0755229d42cd56a8",
            "0x0000000000000000000000005b73c5498c1e3b4dba84de0f1833c4a029d90519"
          ],
          "data": "0x00000000000000000000000000000000000000000000000000038d7ea4c68000",
          "blockHash": "0x6977cfff3fea5c8fdb672187ac1e8d9cfaa7c76f2fb29738c6424a47b11018c3",
          "blockNumber": "0x18a0686",
          "transactionHash": "0xe10c3c4555a9f2c05f91b194a0199a49c30ac0f2d372931bdad2484b1efd1409",
          "transactionIndex": "0x2b",
          "logIndex": "0x9c",
          "removed": false
        }
      ],
      "logsBloom": "0x00000000000000000000000000000000000200000000001000000000000000000000000000000080000000000000000000000000000000010000000000200000000000000000000000000000000000000000000000000000000000000000000000000000000000000000000000000000008000000000000000000000002000000000000000000000000000080000000000000000000000000000000000000000020000000000000000000002000000000000000000000000000000000000000000000000000000000000000000000000000000000000000000000000000000000010000000000000000000000000000000000000000000000000000000000200",
      "type": "0x2",
      "transactionHash": "0xe10c3c4555a9f2c05f91b194a0199a49c30ac0f2d372931bdad2484b1efd1409",
      "transactionIndex": "0x2b",
      "blockHash": "0x6977cfff3fea5c8fdb672187ac1e8d9cfaa7c76f2fb29738c6424a47b11018c3",
      "blockNumber": "0x18a0686",
      "gasUsed": "0xb769",
      "effectiveGasPrice": "0xd20d1",
      "from": "0x19c50bfd73627b35f2ef3f7b0755229d42cd56a8",
      "to": "0x5c602c98ad2434c86d83f956bf3b22323dde7f85",
      "contractAddress": null,
      "l1BaseFeeScalar": "0x44d",
      "l1BlobBaseFee": "0x1",
      "l1BlobBaseFeeScalar": "0xa118b",
      "l1Fee": "0x3fc18e5f3",
      "l1GasPrice": "0x243130422",
      "l1GasUsed": "0x640"
    }
  ],
  "libraries": [],
  "pending": [],
  "returns": {},
  "timestamp": 1747413996,
  "chain": 84532,
  "commit": "18ecf0c"
}