{
  "transactions": [
    {
      "hash": "0x498b4f95266edd826e90491e52c3150f4d95a79336159582636bdcc36484e758",
      "transactionType": "CALL",
      "contractName": null,
      "contractAddress": "0x6e64b5403c36ab073cbd1feb7951e536825ebf60",
      "function": "approve(address,uint256)",
      "arguments": [
        "0x000000000022D473030F116dDEE9F6B43aC78BA3",
        "115792089237316195423570985008687907853269984665640564039457584007913129639935"
      ],
      "transaction": {
        "from": "0xa7793c5c4582c72b3aa5e78859d8bd66998d43ce",
        "to": "0x6e64b5403c36ab073cbd1feb7951e536825ebf60",
        "gas": "0xfeb1",
        "value": "0x0",
        "input": "0x095ea7b3000000000000000000000000000000000022d473030f116ddee9f6b43ac78ba3ffffffffffffffffffffffffffffffffffffffffffffffffffffffffffffffff",
        "nonce": "0x3",
        "chainId": "0x2105"
      },
      "additionalContracts": [],
      "isFixedGasLimit": false
    },
    {
      "hash": "0xef2e3f5050b0850aef64f03f9c77bdf348f730071f28f887317363d575b0f10f",
      "transactionType": "CALL",
      "contractName": null,
      "contractAddress": "0x000000000022d473030f116ddee9f6b43ac78ba3",
      "function": "approve(address,address,uint160,uint48)",
      "arguments": [
        "0x6E64b5403C36Ab073cbD1FEb7951E536825ebF60",
        "0x7C5f5A4bBd8fD63184577525326123B519429bDc",
        "1461501637330902918203684832716283019655932542975",
        "281474976710655"
      ],
      "transaction": {
        "from": "0xa7793c5c4582c72b3aa5e78859d8bd66998d43ce",
        "to": "0x000000000022d473030f116ddee9f6b43ac78ba3",
        "gas": "0x1112d",
        "value": "0x0",
        "input": "0x87517c450000000000000000000000006e64b5403c36ab073cbd1feb7951e536825ebf600000000000000000000000007c5f5a4bbd8fd63184577525326123b519429bdc000000000000000000000000ffffffffffffffffffffffffffffffffffffffff0000000000000000000000000000000000000000000000000000ffffffffffff",
        "nonce": "0x4",
        "chainId": "0x2105"
      },
      "additionalContracts": [],
      "isFixedGasLimit": false
    },
    {
      "hash": "0xa4449820debe8d27abed125dd8cceb1e0bf345abd5fb5e5dd1ac68d7fb3615f0",
      "transactionType": "CALL",
      "contractName": null,
      "contractAddress": "0x7bba73cce26d4b912107d2d8e3963e924faa0fb7",
      "function": "approve(address,uint256)",
      "arguments": [
        "0x000000000022D473030F116dDEE9F6B43aC78BA3",
        "115792089237316195423570985008687907853269984665640564039457584007913129639935"
      ],
      "transaction": {
        "from": "0xa7793c5c4582c72b3aa5e78859d8bd66998d43ce",
        "to": "0x7bba73cce26d4b912107d2d8e3963e924faa0fb7",
        "gas": "0xfeb1",
        "value": "0x0",
        "input": "0x095ea7b3000000000000000000000000000000000022d473030f116ddee9f6b43ac78ba3ffffffffffffffffffffffffffffffffffffffffffffffffffffffffffffffff",
        "nonce": "0x5",
        "chainId": "0x2105"
      },
      "additionalContracts": [],
      "isFixedGasLimit": false
    },
    {
      "hash": "0xbdbfa78e0879fe10d5e60051f63925779436bc86c62d4bb0948cf4d64701fda1",
      "transactionType": "CALL",
      "contractName": null,
      "contractAddress": "0x000000000022d473030f116ddee9f6b43ac78ba3",
      "function": "approve(address,address,uint160,uint48)",
      "arguments": [
        "0x7bbA73CCe26D4b912107d2D8E3963E924faa0fB7",
        "0x7C5f5A4bBd8fD63184577525326123B519429bDc",
        "1461501637330902918203684832716283019655932542975",
        "281474976710655"
      ],
      "transaction": {
        "from": "0xa7793c5c4582c72b3aa5e78859d8bd66998d43ce",
        "to": "0x000000000022d473030f116ddee9f6b43ac78ba3",
        "gas": "0x1112d",
        "value": "0x0",
        "input": "0x87517c450000000000000000000000007bba73cce26d4b912107d2d8e3963e924faa0fb70000000000000000000000007c5f5a4bbd8fd63184577525326123b519429bdc000000000000000000000000ffffffffffffffffffffffffffffffffffffffff0000000000000000000000000000000000000000000000000000ffffffffffff",
        "nonce": "0x6",
        "chainId": "0x2105"
      },
      "additionalContracts": [],
      "isFixedGasLimit": false
    },
    {
      "hash": "0x3afc53f739848fd38d09047b983a19992ad2a25e6d6ca43d39849bab66485dd8",
      "transactionType": "CALL",
      "contractName": null,
      "contractAddress": "0x7c5f5a4bbd8fd63184577525326123b519429bdc",
      "function": "multicall(bytes[])",
      "arguments": [
        "[0xf70204050000000000000000000000006e64b5403c36ab073cbd1feb7951e536825ebf600000000000000000000000007bba73cce26d4b912107d2d8e3963e924faa0fb70000000000000000000000000000000000000000000000000000000000000bb8000000000000000000000000000000000000000000000000000000000000003c000000000000000000000000d2c6dffe0b54441c281adb6b8751d1d6114c0040000000000000000000000000000000000000000050f3449793f6349328837d6100000000000000000000000000000000000000000000000000000000000000e00000000000000000000000000000000000000000000000000000000000000000, 0xdd46508f0000000000000000000000000000000000000000000000000000000000000040000000000000000000000000000000000000000000000000000000006828c45d0000000000000000000000000000000000000000000000000000000000000300000000000000000000000000000000000000000000000000000000000000004000000000000000000000000000000000000000000000000000000000000000800000000000000000000000000000000000000000000000000000000000000002020d00000000000000000000000000000000000000000000000000000000000000000000000000000000000000000000000000000000000000000000000000020000000000000000000000000000000000000000000000000000000000000040000000000000000000000000000000000000000000000000000000000000020000000000000000000000000000000000000000000000000000000000000001a00000000000000000000000006e64b5403c36ab073cbd1feb7951e536825ebf600000000000000000000000007bba73cce26d4b912107d2d8e3963e924faa0fb70000000000000000000000000000000000000000000000000000000000000bb8000000000000000000000000000000000000000000000000000000000000003c000000000000000000000000d2c6dffe0b54441c281adb6b8751d1d6114c0040fffffffffffffffffffffffffffffffffffffffffffffffffffffffffffffda8000000000000000000000000000000000000000000000000000000000000025800000000000000000000000000000000000000000089d982ce02e1b9caadbe78000000000000000000000000000000000000000000084595161401484a00000100000000000000000000000000000000000000000000003635c9adc5dea000010000000000000000000000005b73c5498c1e3b4dba84de0f1833c4a029d905190000000000000000000000000000000000000000000000000000000000000180000000000000000000000000000000000000000000000000000000000000000000000000000000000000000000000000000000000000000000000000000000400000000000000000000000006e64b5403c36ab073cbd1feb7951e536825ebf600000000000000000000000007bba73cce26d4b912107d2d8e3963e924faa0fb7]"
      ],
      "transaction": {
        "from": "0xa7793c5c4582c72b3aa5e78859d8bd66998d43ce",
        "to": "0x7c5f5a4bbd8fd63184577525326123b519429bdc",
        "gas": "0x834d2",
        "value": "0x0",
        "input": "0xac9650d800000000000000000000000000000000000000000000000000000000000000200000000000000000000000000000000000000000000000000000000000000002000000000000000000000000000000000000000000000000000000000000004000000000000000000000000000000000000000000000000000000000000001800000000000000000000000000000000000000000000000000000000000000104f70204050000000000000000000000006e64b5403c36ab073cbd1feb7951e536825ebf600000000000000000000000007bba73cce26d4b912107d2d8e3963e924faa0fb70000000000000000000000000000000000000000000000000000000000000bb8000000000000000000000000000000000000000000000000000000000000003c000000000000000000000000d2c6dffe0b54441c281adb6b8751d1d6114c0040000000000000000000000000000000000000000050f3449793f6349328837d6100000000000000000000000000000000000000000000000000000000000000e00000000000000000000000000000000000000000000000000000000000000000000000000000000000000000000000000000000000000000000000000000000000000000000000000000000000000000000000000000000000000364dd46508f0000000000000000000000000000000000000000000000000000000000000040000000000000000000000000000000000000000000000000000000006828c45d0000000000000000000000000000000000000000000000000000000000000300000000000000000000000000000000000000000000000000000000000000004000000000000000000000000000000000000000000000000000000000000000800000000000000000000000000000000000000000000000000000000000000002020d00000000000000000000000000000000000000000000000000000000000000000000000000000000000000000000000000000000000000000000000000020000000000000000000000000000000000000000000000000000000000000040000000000000000000000000000000000000000000000000000000000000020000000000000000000000000000000000000000000000000000000000000001a00000000000000000000000006e64b5403c36ab073cbd1feb7951e536825ebf600000000000000000000000007bba73cce26d4b912107d2d8e3963e924faa0fb70000000000000000000000000000000000000000000000000000000000000bb8000000000000000000000000000000000000000000000000000000000000003c000000000000000000000000d2c6dffe0b54441c281adb6b8751d1d6114c0040fffffffffffffffffffffffffffffffffffffffffffffffffffffffffffffda8000000000000000000000000000000000000000000000000000000000000025800000000000000000000000000000000000000000089d982ce02e1b9caadbe78000000000000000000000000000000000000000000084595161401484a00000100000000000000000000000000000000000000000000003635c9adc5dea000010000000000000000000000005b73c5498c1e3b4dba84de0f1833c4a029d905190000000000000000000000000000000000000000000000000000000000000180000000000000000000000000000000000000000000000000000000000000000000000000000000000000000000000000000000000000000000000000000000400000000000000000000000006e64b5403c36ab073cbd1feb7951e536825ebf600000000000000000000000007bba73cce26d4b912107d2d8e3963e924faa0fb700000000000000000000000000000000000000000000000000000000",
        "nonce": "0x7",
        "chainId": "0x2105"
      },
      "additionalContracts": [],
      "isFixedGasLimit": false
    }
  ],
  "receipts": [
    {
      "status": "0x1",
      "cumulativeGasUsed": "0x2277178",
      "logs": [
        {
          "address": "0x6e64b5403c36ab073cbd1feb7951e536825ebf60",
          "topics": [
            "0x8c5be1e5ebec7d5bd14f71427d1e84f3dd0314c0f7b2291e5b200ac8c7c3b925",
            "0x000000000000000000000000a7793c5c4582c72b3aa5e78859d8bd66998d43ce",
            "0x000000000000000000000000000000000022d473030f116ddee9f6b43ac78ba3"
          ],
          "data": "0xffffffffffffffffffffffffffffffffffffffffffffffffffffffffffffffff",
          "blockHash": "0xca2119072d74f59ccf42815025d5236704c89975be591b5cbea94cd44ec461da",
          "blockNumber": "0x1cf33aa",
          "transactionHash": "0x498b4f95266edd826e90491e52c3150f4d95a79336159582636bdcc36484e758",
          "transactionIndex": "0xa3",
          "logIndex": "0x1ae",
          "removed": false
        }
      ],
      "logsBloom": "0x00000000000000000000020000000000000000020000000000000000000000000000000000000000000008400000000000000000800000000000000000200000000000000000000000004000000000000000000000000800000000000000000000000000000000000000000000000000000000000000000000000000000000000000000000000000000000000400000000000000000000000000000000000000020000000000000000000000000000000000000000008000000000000000000000000000000000000000000000000000000000000000000000000000000000000010000000000000000000000000000000000000000000000000000000000000",
      "type": "0x2",
      "transactionHash": "0x498b4f95266edd826e90491e52c3150f4d95a79336159582636bdcc36484e758",
      "transactionIndex": "0xa3",
      "blockHash": "0xca2119072d74f59ccf42815025d5236704c89975be591b5cbea94cd44ec461da",
      "blockNumber": "0x1cf33aa",
      "gasUsed": "0xb865",
      "effectiveGasPrice": "0x111f37",
      "from": "0xa7793c5c4582c72b3aa5e78859d8bd66998d43ce",
      "to": "0x6e64b5403c36ab073cbd1feb7951e536825ebf60",
      "contractAddress": null,
      "l1BaseFeeScalar": "0x8dd",
      "l1BlobBaseFee": "0x1",
      "l1BlobBaseFeeScalar": "0x101c12",
      "l1Fee": "0x99db4818",
      "l1GasPrice": "0x2a614b7b",
      "l1GasUsed": "0x640"
    },
    {
      "status": "0x1",
      "cumulativeGasUsed": "0x2282c42",
      "logs": [
        {
          "address": "0x000000000022d473030f116ddee9f6b43ac78ba3",
          "topics": [
            "0xda9fa7c1b00402c17d0161b249b1ab8bbec047c5a52207b9c112deffd817036b",
            "0x000000000000000000000000a7793c5c4582c72b3aa5e78859d8bd66998d43ce",
            "0x0000000000000000000000006e64b5403c36ab073cbd1feb7951e536825ebf60",
            "0x0000000000000000000000007c5f5a4bbd8fd63184577525326123b519429bdc"
          ],
          "data": "0x000000000000000000000000ffffffffffffffffffffffffffffffffffffffff0000000000000000000000000000000000000000000000000000ffffffffffff",
          "blockHash": "0xca2119072d74f59ccf42815025d5236704c89975be591b5cbea94cd44ec461da",
          "blockNumber": "0x1cf33aa",
          "transactionHash": "0xef2e3f5050b0850aef64f03f9c77bdf348f730071f28f887317363d575b0f10f",
          "transactionIndex": "0xa4",
          "logIndex": "0x1af",
          "removed": false
        }
      ],
      "logsBloom": "0x00010000000000000000020000000000000000020000000000000000000000000000000000000000000000400000000000000000000000000000000000082000000000000000000000000000000000000000000000000000000000000000000000000000000000000000000000000000000000000000000000000000000080000220000000000000000000000000000000000000000000000000000000000000000000000000000000000000000000000000000000000000000000080000000200000000000000000000000000000000000000000000000040000000000000000000000000000000000000020000000000000000002000000000000000000400",
      "type": "0x2",
      "transactionHash": "0xef2e3f5050b0850aef64f03f9c77bdf348f730071f28f887317363d575b0f10f",
      "transactionIndex": "0xa4",
      "blockHash": "0xca2119072d74f59ccf42815025d5236704c89975be591b5cbea94cd44ec461da",
      "blockNumber": "0x1cf33aa",
      "gasUsed": "0xbaca",
      "effectiveGasPrice": "0x111f37",
      "from": "0xa7793c5c4582c72b3aa5e78859d8bd66998d43ce",
      "to": "0x000000000022d473030f116ddee9f6b43ac78ba3",
      "contractAddress": null,
      "l1BaseFeeScalar": "0x8dd",
      "l1BlobBaseFee": "0x1",
      "l1BlobBaseFeeScalar": "0x101c12",
      "l1Fee": "0xaa008b27",
      "l1GasPrice": "0x2a614b7b",
      "l1GasUsed": "0x6e7"
    },
    {
      "status": "0x1",
      "cumulativeGasUsed": "0x228e4a7",
      "logs": [
        {
          "address": "0x7bba73cce26d4b912107d2d8e3963e924faa0fb7",
          "topics": [
            "0x8c5be1e5ebec7d5bd14f71427d1e84f3dd0314c0f7b2291e5b200ac8c7c3b925",
            "0x000000000000000000000000a7793c5c4582c72b3aa5e78859d8bd66998d43ce",
            "0x000000000000000000000000000000000022d473030f116ddee9f6b43ac78ba3"
          ],
          "data": "0xffffffffffffffffffffffffffffffffffffffffffffffffffffffffffffffff",
          "blockHash": "0xca2119072d74f59ccf42815025d5236704c89975be591b5cbea94cd44ec461da",
          "blockNumber": "0x1cf33aa",
          "transactionHash": "0xa4449820debe8d27abed125dd8cceb1e0bf345abd5fb5e5dd1ac68d7fb3615f0",
          "transactionIndex": "0xa5",
          "logIndex": "0x1b0",
          "removed": false
        }
      ],
      "logsBloom": "0x00000000000000000000020000000000000000020000000000000000000000000000000000000000000000400000000000000000800000000000000000200000000000000000000000004000000000000000000000000800000000000000000000000000000000000000000000000000000000000000000000000000000000000000000000000000200000000000000000000000000000000000000000000000020000000000004000000000000000000000000000000000000000000000000000000000000000000000000000000000000000000000000000000000000000000010000000000000000000000000000000000000000000000000000000000200",
      "type": "0x2",
      "transactionHash": "0xa4449820debe8d27abed125dd8cceb1e0bf345abd5fb5e5dd1ac68d7fb3615f0",
      "transactionIndex": "0xa5",
      "blockHash": "0xca2119072d74f59ccf42815025d5236704c89975be591b5cbea94cd44ec461da",
      "blockNumber": "0x1cf33aa",
      "gasUsed": "0xb865",
      "effectiveGasPrice": "0x111f37",
      "from": "0xa7793c5c4582c72b3aa5e78859d8bd66998d43ce",
      "to": "0x7bba73cce26d4b912107d2d8e3963e924faa0fb7",
      "contractAddress": null,
      "l1BaseFeeScalar": "0x8dd",
      "l1BlobBaseFee": "0x1",
      "l1BlobBaseFeeScalar": "0x101c12",
      "l1Fee": "0x99db4818",
      "l1GasPrice": "0x2a614b7b",
      "l1GasUsed": "0x640"
    },
    {
      "status": "0x1",
      "cumulativeGasUsed": "0x2299f71",
      "logs": [
        {
          "address": "0x000000000022d473030f116ddee9f6b43ac78ba3",
          "topics": [
            "0xda9fa7c1b00402c17d0161b249b1ab8bbec047c5a52207b9c112deffd817036b",
            "0x000000000000000000000000a7793c5c4582c72b3aa5e78859d8bd66998d43ce",
            "0x0000000000000000000000007bba73cce26d4b912107d2d8e3963e924faa0fb7",
            "0x0000000000000000000000007c5f5a4bbd8fd63184577525326123b519429bdc"
          ],
          "data": "0x000000000000000000000000ffffffffffffffffffffffffffffffffffffffff0000000000000000000000000000000000000000000000000000ffffffffffff",
          "blockHash": "0xca2119072d74f59ccf42815025d5236704c89975be591b5cbea94cd44ec461da",
          "blockNumber": "0x1cf33aa",
          "transactionHash": "0xbdbfa78e0879fe10d5e60051f63925779436bc86c62d4bb0948cf4d64701fda1",
          "transactionIndex": "0xa6",
          "logIndex": "0x1b1",
          "removed": false
        }
      ],
      "logsBloom": "0x00010000000000000000020000000000000000020000000000000000000000000000000000000000000000400000000000000000000000000000000000082000000000000000000000000000000000000000000000000000000000000000000000000000000000000000000000000000000000000000000000000000000000000020000000000000000000000000000000000000000000000000000000000000000000000000000000000000000000000000000000000000000000080000000200000000000000000000000000040000000020000000000040000000000000000000000000000000000000000000000000000000002000000020000000000400",
      "type": "0x2",
      "transactionHash": "0xbdbfa78e0879fe10d5e60051f63925779436bc86c62d4bb0948cf4d64701fda1",
      "transactionIndex": "0xa6",
      "blockHash": "0xca2119072d74f59ccf42815025d5236704c89975be591b5cbea94cd44ec461da",
      "blockNumber": "0x1cf33aa",
      "gasUsed": "0xbaca",
      "effectiveGasPrice": "0x111f37",
      "from": "0xa7793c5c4582c72b3aa5e78859d8bd66998d43ce",
      "to": "0x000000000022d473030f116ddee9f6b43ac78ba3",
      "contractAddress": null,
      "l1BaseFeeScalar": "0x8dd",
      "l1BlobBaseFee": "0x1",
      "l1BlobBaseFeeScalar": "0x101c12",
      "l1Fee": "0xaa008b27",
      "l1GasPrice": "0x2a614b7b",
      "l1GasUsed": "0x6e7"
    },
    {
      "status": "0x1",
      "cumulativeGasUsed": "0x22f9066",
      "logs": [
        {
          "address": "0x498581ff718922c3f8e6a244956af099b2652b2b",
          "topics": [
            "0xdd466e674ea557f56295e2d0218a125ea4b4f0f6f3307b95f85e6110838d6438",
            "0xac8295c0558b39a73ea6a0dd3f826e622c54e0ac2e862d957d205b865da8b8ab",
            "0x0000000000000000000000006e64b5403c36ab073cbd1feb7951e536825ebf60",
            "0x0000000000000000000000007bba73cce26d4b912107d2d8e3963e924faa0fb7"
          ],
          "data": "0x0000000000000000000000000000000000000000000000000000000000000bb8000000000000000000000000000000000000000000000000000000000000003c000000000000000000000000d2c6dffe0b54441c281adb6b8751d1d6114c0040000000000000000000000000000000000000000050f3449793f6349328837d61ffffffffffffffffffffffffffffffffffffffffffffffffffffffffffffa60b",
          "blockHash": "0xca2119072d74f59ccf42815025d5236704c89975be591b5cbea94cd44ec461da",
          "blockNumber": "0x1cf33aa",
          "transactionHash": "0x3afc53f739848fd38d09047b983a19992ad2a25e6d6ca43d39849bab66485dd8",
          "transactionIndex": "0xa7",
          "logIndex": "0x1b2",
          "removed": false
        },
        {
          "address": "0x7c5f5a4bbd8fd63184577525326123b519429bdc",
          "topics": [
            "0xddf252ad1be2c89b69c2b068fc378daa952ba7f163c4a11628f55a4df523b3ef",
            "0x0000000000000000000000000000000000000000000000000000000000000000",
            "0x0000000000000000000000005b73c5498c1e3b4dba84de0f1833c4a029d90519",
            "0x000000000000000000000000000000000000000000000000000000000000ecc9"
          ],
          "data": "0x",
          "blockHash": "0xca2119072d74f59ccf42815025d5236704c89975be591b5cbea94cd44ec461da",
          "blockNumber": "0x1cf33aa",
          "transactionHash": "0x3afc53f739848fd38d09047b983a19992ad2a25e6d6ca43d39849bab66485dd8",
          "transactionIndex": "0xa7",
          "logIndex": "0x1b3",
          "removed": false
        },
        {
          "address": "0x498581ff718922c3f8e6a244956af099b2652b2b",
          "topics": [
            "0xf208f4912782fd25c7f114ca3723a2d5dd6f3bcc3ac8db5af63baa85f711d5ec",
            "0xac8295c0558b39a73ea6a0dd3f826e622c54e0ac2e862d957d205b865da8b8ab",
            "0x0000000000000000000000007c5f5a4bbd8fd63184577525326123b519429bdc"
          ],
          "data": "0xfffffffffffffffffffffffffffffffffffffffffffffffffffffffffffffda8000000000000000000000000000000000000000000000000000000000000025800000000000000000000000000000000000000000089d982ce02e1b9caadbe78000000000000000000000000000000000000000000000000000000000000ecc9",
          "blockHash": "0xca2119072d74f59ccf42815025d5236704c89975be591b5cbea94cd44ec461da",
          "blockNumber": "0x1cf33aa",
          "transactionHash": "0x3afc53f739848fd38d09047b983a19992ad2a25e6d6ca43d39849bab66485dd8",
          "transactionIndex": "0xa7",
          "logIndex": "0x1b4",
          "removed": false
        },
        {
          "address": "0x6e64b5403c36ab073cbd1feb7951e536825ebf60",
          "topics": [
            "0xddf252ad1be2c89b69c2b068fc378daa952ba7f163c4a11628f55a4df523b3ef",
            "0x000000000000000000000000a7793c5c4582c72b3aa5e78859d8bd66998d43ce",
            "0x000000000000000000000000498581ff718922c3f8e6a244956af099b2652b2b"
          ],
          "data": "0x000000000000000000000000000000000000000000084595161401484a000000",
          "blockHash": "0xca2119072d74f59ccf42815025d5236704c89975be591b5cbea94cd44ec461da",
          "blockNumber": "0x1cf33aa",
          "transactionHash": "0x3afc53f739848fd38d09047b983a19992ad2a25e6d6ca43d39849bab66485dd8",
          "transactionIndex": "0xa7",
          "logIndex": "0x1b5",
          "removed": false
        }
      ],
      "logsBloom": "0x00000000000000000000020000000000000000020000000000000000000020000020000000000000000008400000000000000000000000000000000000002000200000000000000000000008000000000000000000040000000000000000000000000000020000000000000000000800048000000000000000000010000080000200000001004088000000000400000000000001000000000000000400200000004004000000000008000002010000000000000000008010000000000000000200000002000001000000000000040000000820000000000000000000000020000000000000000000000000020000000004000400002000000020000000000200",
      "type": "0x2",
      "transactionHash": "0x3afc53f739848fd38d09047b983a19992ad2a25e6d6ca43d39849bab66485dd8",
      "transactionIndex": "0xa7",
      "blockHash": "0xca2119072d74f59ccf42815025d5236704c89975be591b5cbea94cd44ec461da",
      "blockNumber": "0x1cf33aa",
      "gasUsed": "0x5f0f5",
      "effectiveGasPrice": "0x111f37",
      "from": "0xa7793c5c4582c72b3aa5e78859d8bd66998d43ce",
      "to": "0x7c5f5a4bbd8fd63184577525326123b519429bdc",
      "contractAddress": null,
      "l1BaseFeeScalar": "0x8dd",
      "l1BlobBaseFee": "0x1",
      "l1BlobBaseFeeScalar": "0x101c12",
      "l1Fee": "0x1f4c384bd",
      "l1GasPrice": "0x2a614b7b",
      "l1GasUsed": "0x1457"
    }
  ],
  "libraries": [],
  "pending": [],
  "returns": {},
  "timestamp": 1747502132,
  "chain": 8453,
  "commit": "18ecf0c"
}