{
  "transactions": [
    {
      "hash": "0xebb799a5e5212f93ffee012dc39df1260d2192046c1b1359c92edb7f5ef1dcad",
      "transactionType": "CALL",
      "contractName": null,
      "contractAddress": "0x5c602c98ad2434c86d83f956bf3b22323dde7f85",
      "function": "approve(address,uint256)",
      "arguments": [
        "0x000000000022D473030F116dDEE9F6B43aC78BA3",
        "115792089237316195423570985008687907853269984665640564039457584007913129639935"
      ],
      "transaction": {
        "from": "0x19c50bfd73627b35f2ef3f7b0755229d42cd56a8",
        "to": "0x5c602c98ad2434c86d83f956bf3b22323dde7f85",
        "gas": "0x9bfd",
        "value": "0x0",
        "input": "0x095ea7b3000000000000000000000000000000000022d473030f116ddee9f6b43ac78ba3ffffffffffffffffffffffffffffffffffffffffffffffffffffffffffffffff",
        "nonce": "0x7c",
        "chainId": "0x14a34"
      },
      "additionalContracts": [],
      "isFixedGasLimit": false
    },
    {
      "hash": "0xf19de330bdef6ca3b231e69495ab6e8a237a84905d33c957675d9b1d03248485",
      "transactionType": "CALL",
      "contractName": null,
      "contractAddress": "0x000000000022d473030f116ddee9f6b43ac78ba3",
      "function": "approve(address,address,uint160,uint48)",
      "arguments": [
        "0x5c602C98Ad2434c86D83f956bF3B22323dDe7f85",
        "0x4B2C77d209D3405F41a037Ec6c77F7F5b8e2ca80",
        "1461501637330902918203684832716283019655932542975",
        "281474976710655"
      ],
      "transaction": {
        "from": "0x19c50bfd73627b35f2ef3f7b0755229d42cd56a8",
        "to": "0x000000000022d473030f116ddee9f6b43ac78ba3",
        "gas": "0x96a0",
        "value": "0x0",
        "input": "0x87517c450000000000000000000000005c602c98ad2434c86d83f956bf3b22323dde7f850000000000000000000000004b2c77d209d3405f41a037ec6c77f7f5b8e2ca80000000000000000000000000ffffffffffffffffffffffffffffffffffffffff0000000000000000000000000000000000000000000000000000ffffffffffff",
        "nonce": "0x7d",
        "chainId": "0x14a34"
      },
      "additionalContracts": [],
      "isFixedGasLimit": false
    },
    {
      "hash": "0x7556c3ef5c90e961355697d5d54069ed5f9f2a839152f484e54d7216129d5f2a",
      "transactionType": "CALL",
      "contractName": null,
      "contractAddress": "0xf51980a3455732b35852362e8a749ac67399fadf",
      "function": "approve(address,uint256)",
      "arguments": [
        "0x000000000022D473030F116dDEE9F6B43aC78BA3",
        "115792089237316195423570985008687907853269984665640564039457584007913129639935"
      ],
      "transaction": {
        "from": "0x19c50bfd73627b35f2ef3f7b0755229d42cd56a8",
        "to": "0xf51980a3455732b35852362e8a749ac67399fadf",
        "gas": "0x9bfd",
        "value": "0x0",
        "input": "0x095ea7b3000000000000000000000000000000000022d473030f116ddee9f6b43ac78ba3ffffffffffffffffffffffffffffffffffffffffffffffffffffffffffffffff",
        "nonce": "0x7e",
        "chainId": "0x14a34"
      },
      "additionalContracts": [],
      "isFixedGasLimit": false
    },
    {
      "hash": "0x3de4589abdcb6cac0c0edfba7590d9ef044455600248de5f910d99640c1022e9",
      "transactionType": "CALL",
      "contractName": null,
      "contractAddress": "0x000000000022d473030f116ddee9f6b43ac78ba3",
      "function": "approve(address,address,uint160,uint48)",
      "arguments": [
        "0xF51980A3455732B35852362E8a749ac67399FAdF",
        "0x4B2C77d209D3405F41a037Ec6c77F7F5b8e2ca80",
        "1461501637330902918203684832716283019655932542975",
        "281474976710655"
      ],
      "transaction": {
        "from": "0x19c50bfd73627b35f2ef3f7b0755229d42cd56a8",
        "to": "0x000000000022d473030f116ddee9f6b43ac78ba3",
        "gas": "0x96a0",
        "value": "0x0",
        "input": "0x87517c45000000000000000000000000f51980a3455732b35852362e8a749ac67399fadf0000000000000000000000004b2c77d209d3405f41a037ec6c77f7f5b8e2ca80000000000000000000000000ffffffffffffffffffffffffffffffffffffffff0000000000000000000000000000000000000000000000000000ffffffffffff",
        "nonce": "0x7f",
        "chainId": "0x14a34"
      },
      "additionalContracts": [],
      "isFixedGasLimit": false
    },
    {
      "hash": "0xd9e5d59708a088fd238b7e471fa294a56910067ef2b15e623d715731d0235c1c",
      "transactionType": "CALL",
      "contractName": null,
      "contractAddress": "0x4b2c77d209d3405f41a037ec6c77f7f5b8e2ca80",
      "function": "multicall(bytes[])",
      "arguments": [
        "[0xf70204050000000000000000000000005c602c98ad2434c86d83f956bf3b22323dde7f85000000000000000000000000f51980a3455732b35852362e8a749ac67399fadf0000000000000000000000000000000000000000000000000000000000000bb8000000000000000000000000000000000000000000000000000000000000003c000000000000000000000000ce7e5acc2e1c3095b52846cf07bafa1b88540040000000000000000000000000000000000000000050f3449793f6349328837d6100000000000000000000000000000000000000000000000000000000000000e00000000000000000000000000000000000000000000000000000000000000000, 0xdd46508f0000000000000000000000000000000000000000000000000000000000000040000000000000000000000000000000000000000000000000000000006827f4be0000000000000000000000000000000000000000000000000000000000000300000000000000000000000000000000000000000000000000000000000000004000000000000000000000000000000000000000000000000000000000000000800000000000000000000000000000000000000000000000000000000000000002020d00000000000000000000000000000000000000000000000000000000000000000000000000000000000000000000000000000000000000000000000000020000000000000000000000000000000000000000000000000000000000000040000000000000000000000000000000000000000000000000000000000000020000000000000000000000000000000000000000000000000000000000000001a00000000000000000000000005c602c98ad2434c86d83f956bf3b22323dde7f85000000000000000000000000f51980a3455732b35852362e8a749ac67399fadf0000000000000000000000000000000000000000000000000000000000000bb8000000000000000000000000000000000000000000000000000000000000003c000000000000000000000000ce7e5acc2e1c3095b52846cf07bafa1b88540040fffffffffffffffffffffffffffffffffffffffffffffffffffffffffffffda8000000000000000000000000000000000000000000000000000000000000025800000000000000000000000000000000000000000089d982ce02e1b9caadbe78000000000000000000000000000000000000000000084595161401484a00000100000000000000000000000000000000000000000000003635c9adc5dea000010000000000000000000000005b73c5498c1e3b4dba84de0f1833c4a029d905190000000000000000000000000000000000000000000000000000000000000180000000000000000000000000000000000000000000000000000000000000000000000000000000000000000000000000000000000000000000000000000000400000000000000000000000005c602c98ad2434c86d83f956bf3b22323dde7f85000000000000000000000000f51980a3455732b35852362e8a749ac67399fadf]"
      ],
      "transaction": {
        "from": "0x19c50bfd73627b35f2ef3f7b0755229d42cd56a8",
        "to": "0x4b2c77d209d3405f41a037ec6c77f7f5b8e2ca80",
        "gas": "0x58d6e",
        "value": "0x0",
        "input": "0xac9650d800000000000000000000000000000000000000000000000000000000000000200000000000000000000000000000000000000000000000000000000000000002000000000000000000000000000000000000000000000000000000000000004000000000000000000000000000000000000000000000000000000000000001800000000000000000000000000000000000000000000000000000000000000104f70204050000000000000000000000005c602c98ad2434c86d83f956bf3b22323dde7f85000000000000000000000000f51980a3455732b35852362e8a749ac67399fadf0000000000000000000000000000000000000000000000000000000000000bb8000000000000000000000000000000000000000000000000000000000000003c000000000000000000000000ce7e5acc2e1c3095b52846cf07bafa1b88540040000000000000000000000000000000000000000050f3449793f6349328837d6100000000000000000000000000000000000000000000000000000000000000e00000000000000000000000000000000000000000000000000000000000000000000000000000000000000000000000000000000000000000000000000000000000000000000000000000000000000000000000000000000000000364dd46508f0000000000000000000000000000000000000000000000000000000000000040000000000000000000000000000000000000000000000000000000006827f4be0000000000000000000000000000000000000000000000000000000000000300000000000000000000000000000000000000000000000000000000000000004000000000000000000000000000000000000000000000000000000000000000800000000000000000000000000000000000000000000000000000000000000002020d00000000000000000000000000000000000000000000000000000000000000000000000000000000000000000000000000000000000000000000000000020000000000000000000000000000000000000000000000000000000000000040000000000000000000000000000000000000000000000000000000000000020000000000000000000000000000000000000000000000000000000000000001a00000000000000000000000005c602c98ad2434c86d83f956bf3b22323dde7f85000000000000000000000000f51980a3455732b35852362e8a749ac67399fadf0000000000000000000000000000000000000000000000000000000000000bb8000000000000000000000000000000000000000000000000000000000000003c000000000000000000000000ce7e5acc2e1c3095b52846cf07bafa1b88540040fffffffffffffffffffffffffffffffffffffffffffffffffffffffffffffda8000000000000000000000000000000000000000000000000000000000000025800000000000000000000000000000000000000000089d982ce02e1b9caadbe78000000000000000000000000000000000000000000084595161401484a00000100000000000000000000000000000000000000000000003635c9adc5dea000010000000000000000000000005b73c5498c1e3b4dba84de0f1833c4a029d905190000000000000000000000000000000000000000000000000000000000000180000000000000000000000000000000000000000000000000000000000000000000000000000000000000000000000000000000000000000000000000000000400000000000000000000000005c602c98ad2434c86d83f956bf3b22323dde7f85000000000000000000000000f51980a3455732b35852362e8a749ac67399fadf00000000000000000000000000000000000000000000000000000000",
        "nonce": "0x80",
        "chainId": "0x14a34"
      },
      "additionalContracts": [],
      "isFixedGasLimit": false
    }
  ],
  "receipts": [
    {
      "status": "0x1",
      "cumulativeGasUsed": "0x208d85",
      "logs": [
        {
          "address": "0x5c602c98ad2434c86d83f956bf3b22323dde7f85",
          "topics": [
            "0x8c5be1e5ebec7d5bd14f71427d1e84f3dd0314c0f7b2291e5b200ac8c7c3b925",
            "0x00000000000000000000000019c50bfd73627b35f2ef3f7b0755229d42cd56a8",
            "0x000000000000000000000000000000000022d473030f116ddee9f6b43ac78ba3"
          ],
          "data": "0xffffffffffffffffffffffffffffffffffffffffffffffffffffffffffffffff",
          "blockHash": "0x05305c3740c0d29dfcaa279dfb4efd2e97714d1bf0192b90949b5a5e145a2800",
          "blockNumber": "0x18a4adc",
          "transactionHash": "0xebb799a5e5212f93ffee012dc39df1260d2192046c1b1359c92edb7f5ef1dcad",
          "transactionIndex": "0xd",
          "logIndex": "0x5b",
          "removed": false
        }
      ],
      "logsBloom": "0x00000000000000000000000000000000000200000000001000000000000000000000000000000080000000000000000000000000800000010000000000200000000000000000000000004000000000000000000000000800000000000000000000000000000000000000000000000000000000000000000000000000002000000000000000000000000000080000000000000000000000000000000000000000020000000000000000000000000000000000000000000000000000000000000000000000000000000000000000000000000000000000000000000000000000000010000000000000000000000000000000000000000000000000000000000000",
      "type": "0x2",
      "transactionHash": "0xebb799a5e5212f93ffee012dc39df1260d2192046c1b1359c92edb7f5ef1dcad",
      "transactionIndex": "0xd",
      "blockHash": "0x05305c3740c0d29dfcaa279dfb4efd2e97714d1bf0192b90949b5a5e145a2800",
      "blockNumber": "0x18a4adc",
      "gasUsed": "0x6aa9",
      "effectiveGasPrice": "0xf442e",
      "from": "0x19c50bfd73627b35f2ef3f7b0755229d42cd56a8",
      "to": "0x5c602c98ad2434c86d83f956bf3b22323dde7f85",
      "contractAddress": null,
      "l1BaseFeeScalar": "0x44d",
      "l1BlobBaseFee": "0x1",
      "l1BlobBaseFeeScalar": "0xa118b",
      "l1Fee": "0xbe09a7",
      "l1GasPrice": "0x6be099",
      "l1GasUsed": "0x640"
    },
    {
      "status": "0x1",
      "cumulativeGasUsed": "0x20fa93",
      "logs": [
        {
          "address": "0x000000000022d473030f116ddee9f6b43ac78ba3",
          "topics": [
            "0xda9fa7c1b00402c17d0161b249b1ab8bbec047c5a52207b9c112deffd817036b",
            "0x00000000000000000000000019c50bfd73627b35f2ef3f7b0755229d42cd56a8",
            "0x0000000000000000000000005c602c98ad2434c86d83f956bf3b22323dde7f85",
            "0x0000000000000000000000004b2c77d209d3405f41a037ec6c77f7f5b8e2ca80"
          ],
          "data": "0x000000000000000000000000ffffffffffffffffffffffffffffffffffffffff0000000000000000000000000000000000000000000000000000ffffffffffff",
          "blockHash": "0x05305c3740c0d29dfcaa279dfb4efd2e97714d1bf0192b90949b5a5e145a2800",
          "blockNumber": "0x18a4adc",
          "transactionHash": "0xf19de330bdef6ca3b231e69495ab6e8a237a84905d33c957675d9b1d03248485",
          "transactionIndex": "0xe",
          "logIndex": "0x5c",
          "removed": false
        }
      ],
      "logsBloom": "0x00010000000000010000000000000000000200000000000000000000000000000000000000000080000000000000000000000000000000010008000010080000000000004000000000000000000000000000000000000000000000000000000000000400000000000000000000000000000000000000000000000000000000000020000000000000000000000000000000000000000000000000000000000000000000000000000000000000000000000000000000000000000000080000000000000000000000000002000000000000000000000000000040000000000000000000000000000000000000000000000000000000000000000000000000000400",
      "type": "0x2",
      "transactionHash": "0xf19de330bdef6ca3b231e69495ab6e8a237a84905d33c957675d9b1d03248485",
      "transactionIndex": "0xe",
      "blockHash": "0x05305c3740c0d29dfcaa279dfb4efd2e97714d1bf0192b90949b5a5e145a2800",
      "blockNumber": "0x18a4adc",
      "gasUsed": "0x6d0e",
      "effectiveGasPrice": "0xf442e",
      "from": "0x19c50bfd73627b35f2ef3f7b0755229d42cd56a8",
      "to": "0x000000000022d473030f116ddee9f6b43ac78ba3",
      "contractAddress": null,
      "l1BaseFeeScalar": "0x44d",
      "l1BlobBaseFee": "0x1",
      "l1BlobBaseFeeScalar": "0xa118b",
      "l1Fee": "0xd391db",
      "l1GasPrice": "0x6be099",
      "l1GasUsed": "0x6f5"
    },
    {
      "status": "0x1",
      "cumulativeGasUsed": "0x21653c",
      "logs": [
        {
          "address": "0xf51980a3455732b35852362e8a749ac67399fadf",
          "topics": [
            "0x8c5be1e5ebec7d5bd14f71427d1e84f3dd0314c0f7b2291e5b200ac8c7c3b925",
            "0x00000000000000000000000019c50bfd73627b35f2ef3f7b0755229d42cd56a8",
            "0x000000000000000000000000000000000022d473030f116ddee9f6b43ac78ba3"
          ],
          "data": "0xffffffffffffffffffffffffffffffffffffffffffffffffffffffffffffffff",
          "blockHash": "0x05305c3740c0d29dfcaa279dfb4efd2e97714d1bf0192b90949b5a5e145a2800",
          "blockNumber": "0x18a4adc",
          "transactionHash": "0x7556c3ef5c90e961355697d5d54069ed5f9f2a839152f484e54d7216129d5f2a",
          "transactionIndex": "0xf",
          "logIndex": "0x5d",
          "removed": false
        }
      ],
      "logsBloom": "0x00000000000000000000000000000000000200000000000000000000000000000000000000000080000000000000000000000000800000010000000000200000000000000000000000004000000000000800000000000800000000000000000000000000000000000000000000000200000000000000000000000000000000000000000000000000000000000000000000000000000000000000000000000000020200000000000000000000000000000000000000000000000000000000000000000000000000000000000000000000000000000000000000000000000000000010000000000000000000000000000000000000000000000000000000000000",
      "type": "0x2",
      "transactionHash": "0x7556c3ef5c90e961355697d5d54069ed5f9f2a839152f484e54d7216129d5f2a",
      "transactionIndex": "0xf",
      "blockHash": "0x05305c3740c0d29dfcaa279dfb4efd2e97714d1bf0192b90949b5a5e145a2800",
      "blockNumber": "0x18a4adc",
      "gasUsed": "0x6aa9",
      "effectiveGasPrice": "0xf442e",
      "from": "0x19c50bfd73627b35f2ef3f7b0755229d42cd56a8",
      "to": "0xf51980a3455732b35852362e8a749ac67399fadf",
      "contractAddress": null,
      "l1BaseFeeScalar": "0x44d",
      "l1BlobBaseFee": "0x1",
      "l1BlobBaseFeeScalar": "0xa118b",
      "l1Fee": "0xbe09a7",
      "l1GasPrice": "0x6be099",
      "l1GasUsed": "0x640"
    },
    {
      "status": "0x1",
      "cumulativeGasUsed": "0x21d24a",
      "logs": [
        {
          "address": "0x000000000022d473030f116ddee9f6b43ac78ba3",
          "topics": [
            "0xda9fa7c1b00402c17d0161b249b1ab8bbec047c5a52207b9c112deffd817036b",
            "0x00000000000000000000000019c50bfd73627b35f2ef3f7b0755229d42cd56a8",
            "0x000000000000000000000000f51980a3455732b35852362e8a749ac67399fadf",
            "0x0000000000000000000000004b2c77d209d3405f41a037ec6c77f7f5b8e2ca80"
          ],
          "data": "0x000000000000000000000000ffffffffffffffffffffffffffffffffffffffff0000000000000000000000000000000000000000000000000000ffffffffffff",
          "blockHash": "0x05305c3740c0d29dfcaa279dfb4efd2e97714d1bf0192b90949b5a5e145a2800",
          "blockNumber": "0x18a4adc",
          "transactionHash": "0x3de4589abdcb6cac0c0edfba7590d9ef044455600248de5f910d99640c1022e9",
          "transactionIndex": "0x10",
          "logIndex": "0x5e",
          "removed": false
        }
      ],
      "logsBloom": "0x00010000000000010000000000000000000200000000000000000000000000000000000000000080000000000000000000000000000000010008000010080000000000000000000000000000000000000000000000000000000000000000000000000000000000000000000000000000000000000000000200000000000000000020020000000000000000000001000000000000000000000000000000000000000000000000000000000000000000000000000000000000000000080000000000000000000000000000000000000000000000000000000040000000000000000000000000000000000000000000000000000000000000000000000000000400",
      "type": "0x2",
      "transactionHash": "0x3de4589abdcb6cac0c0edfba7590d9ef044455600248de5f910d99640c1022e9",
      "transactionIndex": "0x10",
      "blockHash": "0x05305c3740c0d29dfcaa279dfb4efd2e97714d1bf0192b90949b5a5e145a2800",
      "blockNumber": "0x18a4adc",
      "gasUsed": "0x6d0e",
      "effectiveGasPrice": "0xf442e",
      "from": "0x19c50bfd73627b35f2ef3f7b0755229d42cd56a8",
      "to": "0x000000000022d473030f116ddee9f6b43ac78ba3",
      "contractAddress": null,
      "l1BaseFeeScalar": "0x44d",
      "l1BlobBaseFee": "0x1",
      "l1BlobBaseFeeScalar": "0xa118b",
      "l1Fee": "0xd391db",
      "l1GasPrice": "0x6be099",
      "l1GasUsed": "0x6f5"
    },
    {
      "status": "0x1",
      "cumulativeGasUsed": "0x25d762",
      "logs": [
        {
          "address": "0x4b2c77d209d3405f41a037ec6c77f7f5b8e2ca80",
          "topics": [
            "0xddf252ad1be2c89b69c2b068fc378daa952ba7f163c4a11628f55a4df523b3ef",
            "0x0000000000000000000000000000000000000000000000000000000000000000",
            "0x0000000000000000000000005b73c5498c1e3b4dba84de0f1833c4a029d90519",
            "0x00000000000000000000000000000000000000000000000000000000000003b4"
          ],
          "data": "0x",
          "blockHash": "0x05305c3740c0d29dfcaa279dfb4efd2e97714d1bf0192b90949b5a5e145a2800",
          "blockNumber": "0x18a4adc",
          "transactionHash": "0xd9e5d59708a088fd238b7e471fa294a56910067ef2b15e623d715731d0235c1c",
          "transactionIndex": "0x11",
          "logIndex": "0x5f",
          "removed": false
        },
        {
          "address": "0x05e73354cfdd6745c338b50bcfdfa3aa6fa03408",
          "topics": [
            "0xf208f4912782fd25c7f114ca3723a2d5dd6f3bcc3ac8db5af63baa85f711d5ec",
            "0x60ab7380ad3be47445bc04450117dca7e25600ef591e57e3bb0f484c86c03e51",
            "0x0000000000000000000000004b2c77d209d3405f41a037ec6c77f7f5b8e2ca80"
          ],
          "data": "0xfffffffffffffffffffffffffffffffffffffffffffffffffffffffffffffda8000000000000000000000000000000000000000000000000000000000000025800000000000000000000000000000000000000000089d982ce02e1b9caadbe7800000000000000000000000000000000000000000000000000000000000003b4",
          "blockHash": "0x05305c3740c0d29dfcaa279dfb4efd2e97714d1bf0192b90949b5a5e145a2800",
          "blockNumber": "0x18a4adc",
          "transactionHash": "0xd9e5d59708a088fd238b7e471fa294a56910067ef2b15e623d715731d0235c1c",
          "transactionIndex": "0x11",
          "logIndex": "0x60",
          "removed": false
        },
        {
          "address": "0x5c602c98ad2434c86d83f956bf3b22323dde7f85",
          "topics": [
            "0xddf252ad1be2c89b69c2b068fc378daa952ba7f163c4a11628f55a4df523b3ef",
            "0x00000000000000000000000019c50bfd73627b35f2ef3f7b0755229d42cd56a8",
            "0x00000000000000000000000005e73354cfdd6745c338b50bcfdfa3aa6fa03408"
          ],
          "data": "0x00000000000000000000000000000000000000000008458faa4ca3268b2b73e7",
          "blockHash": "0x05305c3740c0d29dfcaa279dfb4efd2e97714d1bf0192b90949b5a5e145a2800",
          "blockNumber": "0x18a4adc",
          "transactionHash": "0xd9e5d59708a088fd238b7e471fa294a56910067ef2b15e623d715731d0235c1c",
          "transactionIndex": "0x11",
          "logIndex": "0x61",
          "removed": false
        },
        {
          "address": "0xf51980a3455732b35852362e8a749ac67399fadf",
          "topics": [
            "0xddf252ad1be2c89b69c2b068fc378daa952ba7f163c4a11628f55a4df523b3ef",
            "0x00000000000000000000000019c50bfd73627b35f2ef3f7b0755229d42cd56a8",
            "0x00000000000000000000000005e73354cfdd6745c338b50bcfdfa3aa6fa03408"
          ],
          "data": "0x0000000000000000000000000000000000000000000000051af72c2389390e67",
          "blockHash": "0x05305c3740c0d29dfcaa279dfb4efd2e97714d1bf0192b90949b5a5e145a2800",
          "blockNumber": "0x18a4adc",
          "transactionHash": "0xd9e5d59708a088fd238b7e471fa294a56910067ef2b15e623d715731d0235c1c",
          "transactionIndex": "0x11",
          "logIndex": "0x62",
          "removed": false
        }
      ],
      "logsBloom": "0x00000000004000010000000000000000000208000000001000000008000000000100000100000080000000000000000000000000000000010008000010000800000000000010000000000008000000000800000000100000000000008000000000200000020000000000000000000a00008000000000000000000010002000000000000005000000000000080000000000000000000200000000000000000000000204000000000000000002000000000000000000000000000000000000000000000002001000000000000000000000020000000000000000000000000020000000000000000000000000000800000004000000000000000000000000000200",
      "type": "0x2",
      "transactionHash": "0xd9e5d59708a088fd238b7e471fa294a56910067ef2b15e623d715731d0235c1c",
      "transactionIndex": "0x11",
      "blockHash": "0x05305c3740c0d29dfcaa279dfb4efd2e97714d1bf0192b90949b5a5e145a2800",
      "blockNumber": "0x18a4adc",
      "gasUsed": "0x40518",
      "effectiveGasPrice": "0xf442e",
      "from": "0x19c50bfd73627b35f2ef3f7b0755229d42cd56a8",
      "to": "0x4b2c77d209d3405f41a037ec6c77f7f5b8e2ca80",
      "contractAddress": null,
      "l1BaseFeeScalar": "0x44d",
      "l1BlobBaseFee": "0x1",
      "l1BlobBaseFeeScalar": "0xa118b",
      "l1Fee": "0x26f4b0a",
      "l1GasPrice": "0x6be099",
      "l1GasUsed": "0x147f"
    }
  ],
  "libraries": [],
  "pending": [],
  "returns": {},
  "timestamp": 1747448982,
  "chain": 84532,
  "commit": "18ecf0c"
}