{
  "transactions": [
    {
      "hash": "0xeb6a7e01c3b240cee4e4da3607bf18b1902aadd65582ddb50235de82e181a8d6",
      "transactionType": "CALL",
      "contractName": null,
      "contractAddress": "0x5c602c98ad2434c86d83f956bf3b22323dde7f85",
      "function": "approve(address,uint256)",
      "arguments": [
        "0x000000000022D473030F116dDEE9F6B43aC78BA3",
        "115792089237316195423570985008687907853269984665640564039457584007913129639935"
      ],
      "transaction": {
        "from": "0x19c50bfd73627b35f2ef3f7b0755229d42cd56a8",
        "to": "0x5c602c98ad2434c86d83f956bf3b22323dde7f85",
        "gas": "0xfeb1",
        "value": "0x0",
        "input": "0x095ea7b3000000000000000000000000000000000022d473030f116ddee9f6b43ac78ba3ffffffffffffffffffffffffffffffffffffffffffffffffffffffffffffffff",
        "nonce": "0x36",
        "chainId": "0x14a34"
      },
      "additionalContracts": [],
      "isFixedGasLimit": false
    },
    {
      "hash": "0xe4656863faca81b546f52ee021ede58ee4a19b8053cd9d9d3df5825094b6235e",
      "transactionType": "CALL",
      "contractName": null,
      "contractAddress": "0x000000000022d473030f116ddee9f6b43ac78ba3",
      "function": "approve(address,address,uint160,uint48)",
      "arguments": [
        "0x5c602C98Ad2434c86D83f956bF3B22323dDe7f85",
        "0x4B2C77d209D3405F41a037Ec6c77F7F5b8e2ca80",
        "1461501637330902918203684832716283019655932542975",
        "281474976710655"
      ],
      "transaction": {
        "from": "0x19c50bfd73627b35f2ef3f7b0755229d42cd56a8",
        "to": "0x000000000022d473030f116ddee9f6b43ac78ba3",
        "gas": "0x1112d",
        "value": "0x0",
        "input": "0x87517c450000000000000000000000005c602c98ad2434c86d83f956bf3b22323dde7f850000000000000000000000004b2c77d209d3405f41a037ec6c77f7f5b8e2ca80000000000000000000000000ffffffffffffffffffffffffffffffffffffffff0000000000000000000000000000000000000000000000000000ffffffffffff",
        "nonce": "0x37",
        "chainId": "0x14a34"
      },
      "additionalContracts": [],
      "isFixedGasLimit": false
    },
    {
      "hash": "0xccbca4e35d6ef97fb2ab339df4e9beabe96a80ec9f831abba9935cd28d0d6da3",
      "transactionType": "CALL",
      "contractName": null,
      "contractAddress": "0x4b2c77d209d3405f41a037ec6c77f7f5b8e2ca80",
      "function": "multicall(bytes[])",
      "arguments": [
        "[0xf702040500000000000000000000000000000000000000000000000000000000000000000000000000000000000000005c602c98ad2434c86d83f956bf3b22323dde7f850000000000000000000000000000000000000000000000000000000000000bb8000000000000000000000000000000000000000000000000000000000000003c000000000000000000000000ce7e5acc2e1c3095b52846cf07bafa1b88540040000000000000000000000000000000000000000100000000000000000000000000000000000000000000000000000000000000000000000000000000000000e00000000000000000000000000000000000000000000000000000000000000000, 0xdd46508f00000000000000000000000000000000000000000000000000000000000000400000000000000000000000000000000000000000000000000000000068271c060000000000000000000000000000000000000000000000000000000000000300000000000000000000000000000000000000000000000000000000000000004000000000000000000000000000000000000000000000000000000000000000800000000000000000000000000000000000000000000000000000000000000002020d00000000000000000000000000000000000000000000000000000000000000000000000000000000000000000000000000000000000000000000000000020000000000000000000000000000000000000000000000000000000000000040000000000000000000000000000000000000000000000000000000000000020000000000000000000000000000000000000000000000000000000000000001a000000000000000000000000000000000000000000000000000000000000000000000000000000000000000005c602c98ad2434c86d83f956bf3b22323dde7f850000000000000000000000000000000000000000000000000000000000000bb8000000000000000000000000000000000000000000000000000000000000003c000000000000000000000000ce7e5acc2e1c3095b52846cf07bafa1b88540040fffffffffffffffffffffffffffffffffffffffffffffffffffffffffffffda8000000000000000000000000000000000000000000000000000000000000025800000000000000000000000000000000000000000000000000783706dc3f2e8300000000000000000000000000000000000000000000000000038d7ea4c6800100000000000000000000000000000000000000000000003635c9adc5dea000010000000000000000000000005b73c5498c1e3b4dba84de0f1833c4a029d9051900000000000000000000000000000000000000000000000000000000000001800000000000000000000000000000000000000000000000000000000000000000000000000000000000000000000000000000000000000000000000000000004000000000000000000000000000000000000000000000000000000000000000000000000000000000000000005c602c98ad2434c86d83f956bf3b22323dde7f85]"
      ],
      "transaction": {
        "from": "0x19c50bfd73627b35f2ef3f7b0755229d42cd56a8",
        "to": "0x4b2c77d209d3405f41a037ec6c77f7f5b8e2ca80",
        "gas": "0x88fc2",
        "value": "0x38d7ea4c68001",
        "input": "0xac9650d800000000000000000000000000000000000000000000000000000000000000200000000000000000000000000000000000000000000000000000000000000002000000000000000000000000000000000000000000000000000000000000004000000000000000000000000000000000000000000000000000000000000001800000000000000000000000000000000000000000000000000000000000000104f702040500000000000000000000000000000000000000000000000000000000000000000000000000000000000000005c602c98ad2434c86d83f956bf3b22323dde7f850000000000000000000000000000000000000000000000000000000000000bb8000000000000000000000000000000000000000000000000000000000000003c000000000000000000000000ce7e5acc2e1c3095b52846cf07bafa1b88540040000000000000000000000000000000000000000100000000000000000000000000000000000000000000000000000000000000000000000000000000000000e00000000000000000000000000000000000000000000000000000000000000000000000000000000000000000000000000000000000000000000000000000000000000000000000000000000000000000000000000000000000000364dd46508f00000000000000000000000000000000000000000000000000000000000000400000000000000000000000000000000000000000000000000000000068271c060000000000000000000000000000000000000000000000000000000000000300000000000000000000000000000000000000000000000000000000000000004000000000000000000000000000000000000000000000000000000000000000800000000000000000000000000000000000000000000000000000000000000002020d00000000000000000000000000000000000000000000000000000000000000000000000000000000000000000000000000000000000000000000000000020000000000000000000000000000000000000000000000000000000000000040000000000000000000000000000000000000000000000000000000000000020000000000000000000000000000000000000000000000000000000000000001a000000000000000000000000000000000000000000000000000000000000000000000000000000000000000005c602c98ad2434c86d83f956bf3b22323dde7f850000000000000000000000000000000000000000000000000000000000000bb8000000000000000000000000000000000000000000000000000000000000003c000000000000000000000000ce7e5acc2e1c3095b52846cf07bafa1b88540040fffffffffffffffffffffffffffffffffffffffffffffffffffffffffffffda8000000000000000000000000000000000000000000000000000000000000025800000000000000000000000000000000000000000000000000783706dc3f2e8300000000000000000000000000000000000000000000000000038d7ea4c6800100000000000000000000000000000000000000000000003635c9adc5dea000010000000000000000000000005b73c5498c1e3b4dba84de0f1833c4a029d9051900000000000000000000000000000000000000000000000000000000000001800000000000000000000000000000000000000000000000000000000000000000000000000000000000000000000000000000000000000000000000000000004000000000000000000000000000000000000000000000000000000000000000000000000000000000000000005c602c98ad2434c86d83f956bf3b22323dde7f8500000000000000000000000000000000000000000000000000000000",
        "nonce": "0x38",
        "chainId": "0x14a34"
      },
      "additionalContracts": [],
      "isFixedGasLimit": false
    }
  ],
  "receipts": [
    {
      "status": "0x1",
      "cumulativeGasUsed": "0xb13f14",
      "logs": [
        {
          "address": "0x5c602c98ad2434c86d83f956bf3b22323dde7f85",
          "topics": [
            "0x8c5be1e5ebec7d5bd14f71427d1e84f3dd0314c0f7b2291e5b200ac8c7c3b925",
            "0x00000000000000000000000019c50bfd73627b35f2ef3f7b0755229d42cd56a8",
            "0x000000000000000000000000000000000022d473030f116ddee9f6b43ac78ba3"
          ],
          "data": "0xffffffffffffffffffffffffffffffffffffffffffffffffffffffffffffffff",
          "blockHash": "0x33556b0cbe17c95adaede2417c7fdcf0a910f37c4e8b823d0e67d1defc92b8a4",
          "blockNumber": "0x189de7c",
          "transactionHash": "0xeb6a7e01c3b240cee4e4da3607bf18b1902aadd65582ddb50235de82e181a8d6",
          "transactionIndex": "0x4c",
          "logIndex": "0xec",
          "removed": false
        }
      ],
      "logsBloom": "0x00000000000000000000000000000000000200000000001000000000000000000000000000000080000000000000000000000000800000010000000000200000000000000000000000004000000000000000000000000800000000000000000000000000000000000000000000000000000000000000000000000000002000000000000000000000000000080000000000000000000000000000000000000000020000000000000000000000000000000000000000000000000000000000000000000000000000000000000000000000000000000000000000000000000000000010000000000000000000000000000000000000000000000000000000000000",
      "type": "0x2",
      "transactionHash": "0xeb6a7e01c3b240cee4e4da3607bf18b1902aadd65582ddb50235de82e181a8d6",
      "transactionIndex": "0x4c",
      "blockHash": "0x33556b0cbe17c95adaede2417c7fdcf0a910f37c4e8b823d0e67d1defc92b8a4",
      "blockNumber": "0x189de7c",
      "gasUsed": "0xb865",
      "effectiveGasPrice": "0xdf96d",
      "from": "0x19c50bfd73627b35f2ef3f7b0755229d42cd56a8",
      "to": "0x5c602c98ad2434c86d83f956bf3b22323dde7f85",
      "contractAddress": null,
      "l1BaseFeeScalar": "0x44d",
      "l1BlobBaseFee": "0x2",
      "l1BlobBaseFeeScalar": "0xa118b",
      "l1Fee": "0x19b7c9a4e",
      "l1GasPrice": "0xe9964084",
      "l1GasUsed": "0x640"
    },
    {
      "status": "0x1",
      "cumulativeGasUsed": "0xb1f9de",
      "logs": [
        {
          "address": "0x000000000022d473030f116ddee9f6b43ac78ba3",
          "topics": [
            "0xda9fa7c1b00402c17d0161b249b1ab8bbec047c5a52207b9c112deffd817036b",
            "0x00000000000000000000000019c50bfd73627b35f2ef3f7b0755229d42cd56a8",
            "0x0000000000000000000000005c602c98ad2434c86d83f956bf3b22323dde7f85",
            "0x0000000000000000000000004b2c77d209d3405f41a037ec6c77f7f5b8e2ca80"
          ],
          "data": "0x000000000000000000000000ffffffffffffffffffffffffffffffffffffffff0000000000000000000000000000000000000000000000000000ffffffffffff",
          "blockHash": "0x33556b0cbe17c95adaede2417c7fdcf0a910f37c4e8b823d0e67d1defc92b8a4",
          "blockNumber": "0x189de7c",
          "transactionHash": "0xe4656863faca81b546f52ee021ede58ee4a19b8053cd9d9d3df5825094b6235e",
          "transactionIndex": "0x4d",
          "logIndex": "0xed",
          "removed": false
        }
      ],
      "logsBloom": "0x00010000000000010000000000000000000200000000000000000000000000000000000000000080000000000000000000000000000000010008000010080000000000004000000000000000000000000000000000000000000000000000000000000400000000000000000000000000000000000000000000000000000000000020000000000000000000000000000000000000000000000000000000000000000000000000000000000000000000000000000000000000000000080000000000000000000000000002000000000000000000000000000040000000000000000000000000000000000000000000000000000000000000000000000000000400",
      "type": "0x2",
      "transactionHash": "0xe4656863faca81b546f52ee021ede58ee4a19b8053cd9d9d3df5825094b6235e",
      "transactionIndex": "0x4d",
      "blockHash": "0x33556b0cbe17c95adaede2417c7fdcf0a910f37c4e8b823d0e67d1defc92b8a4",
      "blockNumber": "0x189de7c",
      "gasUsed": "0xbaca",
      "effectiveGasPrice": "0xdf96d",
      "from": "0x19c50bfd73627b35f2ef3f7b0755229d42cd56a8",
      "to": "0x000000000022d473030f116ddee9f6b43ac78ba3",
      "contractAddress": null,
      "l1BaseFeeScalar": "0x44d",
      "l1BlobBaseFee": "0x2",
      "l1BlobBaseFeeScalar": "0xa118b",
      "l1Fee": "0x1cd8d49df",
      "l1GasPrice": "0xe9964084",
      "l1GasUsed": "0x702"
    },
    {
      "status": "0x1",
      "cumulativeGasUsed": "0xb82caa",
      "logs": [
        {
          "address": "0x05e73354cfdd6745c338b50bcfdfa3aa6fa03408",
          "topics": [
            "0xdd466e674ea557f56295e2d0218a125ea4b4f0f6f3307b95f85e6110838d6438",
            "0x33784058950efb3b4398e3a29fe4e5eef9ff17d50898b5a96839c81abca99b4a",
            "0x0000000000000000000000000000000000000000000000000000000000000000",
            "0x0000000000000000000000005c602c98ad2434c86d83f956bf3b22323dde7f85"
          ],
          "data": "0x0000000000000000000000000000000000000000000000000000000000000bb8000000000000000000000000000000000000000000000000000000000000003c000000000000000000000000ce7e5acc2e1c3095b52846cf07bafa1b8854004000000000000000000000000000000000000000010000000000000000000000000000000000000000000000000000000000000000000000000000000000000000",
          "blockHash": "0x33556b0cbe17c95adaede2417c7fdcf0a910f37c4e8b823d0e67d1defc92b8a4",
          "blockNumber": "0x189de7c",
          "transactionHash": "0xccbca4e35d6ef97fb2ab339df4e9beabe96a80ec9f831abba9935cd28d0d6da3",
          "transactionIndex": "0x4e",
          "logIndex": "0xee",
          "removed": false
        },
        {
          "address": "0x4b2c77d209d3405f41a037ec6c77f7f5b8e2ca80",
          "topics": [
            "0xddf252ad1be2c89b69c2b068fc378daa952ba7f163c4a11628f55a4df523b3ef",
            "0x0000000000000000000000000000000000000000000000000000000000000000",
            "0x0000000000000000000000005b73c5498c1e3b4dba84de0f1833c4a029d90519",
            "0x00000000000000000000000000000000000000000000000000000000000003a8"
          ],
          "data": "0x",
          "blockHash": "0x33556b0cbe17c95adaede2417c7fdcf0a910f37c4e8b823d0e67d1defc92b8a4",
          "blockNumber": "0x189de7c",
          "transactionHash": "0xccbca4e35d6ef97fb2ab339df4e9beabe96a80ec9f831abba9935cd28d0d6da3",
          "transactionIndex": "0x4e",
          "logIndex": "0xef",
          "removed": false
        },
        {
          "address": "0x05e73354cfdd6745c338b50bcfdfa3aa6fa03408",
          "topics": [
            "0xf208f4912782fd25c7f114ca3723a2d5dd6f3bcc3ac8db5af63baa85f711d5ec",
            "0x33784058950efb3b4398e3a29fe4e5eef9ff17d50898b5a96839c81abca99b4a",
            "0x0000000000000000000000004b2c77d209d3405f41a037ec6c77f7f5b8e2ca80"
          ],
          "data": "0xfffffffffffffffffffffffffffffffffffffffffffffffffffffffffffffda8000000000000000000000000000000000000000000000000000000000000025800000000000000000000000000000000000000000000000000783706dc3f2e8300000000000000000000000000000000000000000000000000000000000003a8",
          "blockHash": "0x33556b0cbe17c95adaede2417c7fdcf0a910f37c4e8b823d0e67d1defc92b8a4",
          "blockNumber": "0x189de7c",
          "transactionHash": "0xccbca4e35d6ef97fb2ab339df4e9beabe96a80ec9f831abba9935cd28d0d6da3",
          "transactionIndex": "0x4e",
          "logIndex": "0xf0",
          "removed": false
        },
        {
          "address": "0x5c602c98ad2434c86d83f956bf3b22323dde7f85",
          "topics": [
            "0xddf252ad1be2c89b69c2b068fc378daa952ba7f163c4a11628f55a4df523b3ef",
            "0x00000000000000000000000019c50bfd73627b35f2ef3f7b0755229d42cd56a8",
            "0x00000000000000000000000005e73354cfdd6745c338b50bcfdfa3aa6fa03408"
          ],
          "data": "0x00000000000000000000000000000000000000000000000000038d7ea4c68000",
          "blockHash": "0x33556b0cbe17c95adaede2417c7fdcf0a910f37c4e8b823d0e67d1defc92b8a4",
          "blockNumber": "0x189de7c",
          "transactionHash": "0xccbca4e35d6ef97fb2ab339df4e9beabe96a80ec9f831abba9935cd28d0d6da3",
          "transactionIndex": "0x4e",
          "logIndex": "0xf1",
          "removed": false
        }
      ],
      "logsBloom": "0x00000000000000010000000000000000000200001000101000000000000000000100000100000080000000000000000000000000000000010008000010000800000000004010000000000008000000000000000000100000000000008000000000000400020000000000000000000800008000000000000000000010002000000000000005000008000000080004000010000001000000000000000000200000000004000000000000000002000000000000000000000000000000000400000000000002001000000002000000000000000000000008000000000000000020000000000000000000000000000800000004000000000000000000000000000200",
      "type": "0x2",
      "transactionHash": "0xccbca4e35d6ef97fb2ab339df4e9beabe96a80ec9f831abba9935cd28d0d6da3",
      "transactionIndex": "0x4e",
      "blockHash": "0x33556b0cbe17c95adaede2417c7fdcf0a910f37c4e8b823d0e67d1defc92b8a4",
      "blockNumber": "0x189de7c",
      "gasUsed": "0x632cc",
      "effectiveGasPrice": "0xdf96d",
      "from": "0x19c50bfd73627b35f2ef3f7b0755229d42cd56a8",
      "to": "0x4b2c77d209d3405f41a037ec6c77f7f5b8e2ca80",
      "contractAddress": null,
      "l1BaseFeeScalar": "0x44d",
      "l1BlobBaseFee": "0x2",
      "l1BlobBaseFeeScalar": "0xa118b",
      "l1Fee": "0x4aab7617d",
      "l1GasPrice": "0xe9964084",
      "l1GasUsed": "0x1225"
    }
  ],
  "libraries": [],
  "pending": [],
  "returns": {},
  "timestamp": 1747393495,
  "chain": 84532,
  "commit": "18ecf0c"
}