{
  "transactions": [
    {
      "hash": "0xbd352cfd2a7d2abbf1eb2b17649c44f1c030fcd8a1b48a2879dcafdde7b19cfd",
      "transactionType": "CALL",
      "contractName": null,
      "contractAddress": "0xf51980a3455732b35852362e8a749ac67399fadf",
      "function": "approve(address,uint256)",
      "arguments": [
        "0x000000000022D473030F116dDEE9F6B43aC78BA3",
        "115792089237316195423570985008687907853269984665640564039457584007913129639935"
      ],
      "transaction": {
        "from": "0x19c50bfd73627b35f2ef3f7b0755229d42cd56a8",
        "to": "0xf51980a3455732b35852362e8a749ac67399fadf",
        "gas": "0xfeb1",
        "value": "0x0",
        "input": "0x095ea7b3000000000000000000000000000000000022d473030f116ddee9f6b43ac78ba3ffffffffffffffffffffffffffffffffffffffffffffffffffffffffffffffff",
        "nonce": "0x60",
        "chainId": "0x14a34"
      },
      "additionalContracts": [],
      "isFixedGasLimit": false
    },
    {
      "hash": "0x503e842ba37aa8cca0ba961347100e1feb65b00630fbbe63c4d860e763abc563",
      "transactionType": "CALL",
      "contractName": null,
      "contractAddress": "0x000000000022d473030f116ddee9f6b43ac78ba3",
      "function": "approve(address,address,uint160,uint48)",
      "arguments": [
        "0xF51980A3455732B35852362E8a749ac67399FAdF",
        "0x4B2C77d209D3405F41a037Ec6c77F7F5b8e2ca80",
        "1461501637330902918203684832716283019655932542975",
        "281474976710655"
      ],
      "transaction": {
        "from": "0x19c50bfd73627b35f2ef3f7b0755229d42cd56a8",
        "to": "0x000000000022d473030f116ddee9f6b43ac78ba3",
        "gas": "0x1112d",
        "value": "0x0",
        "input": "0x87517c45000000000000000000000000f51980a3455732b35852362e8a749ac67399fadf0000000000000000000000004b2c77d209d3405f41a037ec6c77f7f5b8e2ca80000000000000000000000000ffffffffffffffffffffffffffffffffffffffff0000000000000000000000000000000000000000000000000000ffffffffffff",
        "nonce": "0x61",
        "chainId": "0x14a34"
      },
      "additionalContracts": [],
      "isFixedGasLimit": false
    },
    {
      "hash": "0xcbb03ab91e037ec24f6a4bd967e1a0b84e5a99733c4973631a5605d3e4d8c68a",
      "transactionType": "CALL",
      "contractName": null,
      "contractAddress": "0x4b2c77d209d3405f41a037ec6c77f7f5b8e2ca80",
      "function": "multicall(bytes[])",
      "arguments": [
        "[0xf70204050000000000000000000000000000000000000000000000000000000000000000000000000000000000000000f51980a3455732b35852362e8a749ac67399fadf0000000000000000000000000000000000000000000000000000000000000bb8000000000000000000000000000000000000000000000000000000000000003c000000000000000000000000ce7e5acc2e1c3095b52846cf07bafa1b8854004000000000000000000000000000000000000000000000000d94ff8c32b102938a00000000000000000000000000000000000000000000000000000000000000e00000000000000000000000000000000000000000000000000000000000000000, 0xdd46508f000000000000000000000000000000000000000000000000000000000000004000000000000000000000000000000000000000000000000000000000682779820000000000000000000000000000000000000000000000000000000000000300000000000000000000000000000000000000000000000000000000000000004000000000000000000000000000000000000000000000000000000000000000800000000000000000000000000000000000000000000000000000000000000002020d00000000000000000000000000000000000000000000000000000000000000000000000000000000000000000000000000000000000000000000000000020000000000000000000000000000000000000000000000000000000000000040000000000000000000000000000000000000000000000000000000000000020000000000000000000000000000000000000000000000000000000000000001a00000000000000000000000000000000000000000000000000000000000000000000000000000000000000000f51980a3455732b35852362e8a749ac67399fadf0000000000000000000000000000000000000000000000000000000000000bb8000000000000000000000000000000000000000000000000000000000000003c000000000000000000000000ce7e5acc2e1c3095b52846cf07bafa1b88540040fffffffffffffffffffffffffffffffffffffffffffffffffffffffffffffda80000000000000000000000000000000000000000000000000000000000000258000000000000000000000000000000000000000000000000003b34bac372518000000000000000000000000000000000000000000000000000038d7ea4c6800100000000000000000000000000000000000000000000003635c9adc5dea000010000000000000000000000005b73c5498c1e3b4dba84de0f1833c4a029d905190000000000000000000000000000000000000000000000000000000000000180000000000000000000000000000000000000000000000000000000000000000000000000000000000000000000000000000000000000000000000000000000400000000000000000000000000000000000000000000000000000000000000000000000000000000000000000f51980a3455732b35852362e8a749ac67399fadf]"
      ],
      "transaction": {
        "from": "0x19c50bfd73627b35f2ef3f7b0755229d42cd56a8",
        "to": "0x4b2c77d209d3405f41a037ec6c77f7f5b8e2ca80",
        "gas": "0x6f462",
        "value": "0x38d7ea4c68001",
        "input": "0xac9650d800000000000000000000000000000000000000000000000000000000000000200000000000000000000000000000000000000000000000000000000000000002000000000000000000000000000000000000000000000000000000000000004000000000000000000000000000000000000000000000000000000000000001800000000000000000000000000000000000000000000000000000000000000104f70204050000000000000000000000000000000000000000000000000000000000000000000000000000000000000000f51980a3455732b35852362e8a749ac67399fadf0000000000000000000000000000000000000000000000000000000000000bb8000000000000000000000000000000000000000000000000000000000000003c000000000000000000000000ce7e5acc2e1c3095b52846cf07bafa1b8854004000000000000000000000000000000000000000000000000d94ff8c32b102938a00000000000000000000000000000000000000000000000000000000000000e00000000000000000000000000000000000000000000000000000000000000000000000000000000000000000000000000000000000000000000000000000000000000000000000000000000000000000000000000000000000000364dd46508f000000000000000000000000000000000000000000000000000000000000004000000000000000000000000000000000000000000000000000000000682779820000000000000000000000000000000000000000000000000000000000000300000000000000000000000000000000000000000000000000000000000000004000000000000000000000000000000000000000000000000000000000000000800000000000000000000000000000000000000000000000000000000000000002020d00000000000000000000000000000000000000000000000000000000000000000000000000000000000000000000000000000000000000000000000000020000000000000000000000000000000000000000000000000000000000000040000000000000000000000000000000000000000000000000000000000000020000000000000000000000000000000000000000000000000000000000000001a00000000000000000000000000000000000000000000000000000000000000000000000000000000000000000f51980a3455732b35852362e8a749ac67399fadf0000000000000000000000000000000000000000000000000000000000000bb8000000000000000000000000000000000000000000000000000000000000003c000000000000000000000000ce7e5acc2e1c3095b52846cf07bafa1b88540040fffffffffffffffffffffffffffffffffffffffffffffffffffffffffffffda80000000000000000000000000000000000000000000000000000000000000258000000000000000000000000000000000000000000000000003b34bac372518000000000000000000000000000000000000000000000000000038d7ea4c6800100000000000000000000000000000000000000000000003635c9adc5dea000010000000000000000000000005b73c5498c1e3b4dba84de0f1833c4a029d905190000000000000000000000000000000000000000000000000000000000000180000000000000000000000000000000000000000000000000000000000000000000000000000000000000000000000000000000000000000000000000000000400000000000000000000000000000000000000000000000000000000000000000000000000000000000000000f51980a3455732b35852362e8a749ac67399fadf00000000000000000000000000000000000000000000000000000000",
        "nonce": "0x62",
        "chainId": "0x14a34"
      },
      "additionalContracts": [],
      "isFixedGasLimit": false
    }
  ],
  "receipts": [
    {
      "status": "0x1",
      "cumulativeGasUsed": "0x7fd0e5",
      "logs": [
        {
          "address": "0xf51980a3455732b35852362e8a749ac67399fadf",
          "topics": [
            "0x8c5be1e5ebec7d5bd14f71427d1e84f3dd0314c0f7b2291e5b200ac8c7c3b925",
            "0x00000000000000000000000019c50bfd73627b35f2ef3f7b0755229d42cd56a8",
            "0x000000000000000000000000000000000022d473030f116ddee9f6b43ac78ba3"
          ],
          "data": "0xffffffffffffffffffffffffffffffffffffffffffffffffffffffffffffffff",
          "blockHash": "0xb79a48b96af28bd8e3cdac01c7ac030538dc72f575319bd9fdfc4ddd6ae10457",
          "blockNumber": "0x18a0d3a",
          "blockTimestamp": "0x68277954",
          "transactionHash": "0xbd352cfd2a7d2abbf1eb2b17649c44f1c030fcd8a1b48a2879dcafdde7b19cfd",
          "transactionIndex": "0x2a",
          "logIndex": "0x40",
          "removed": false
        }
      ],
      "logsBloom": "0x00000000000000000000000000000000000200000000000000000000000000000000000000000080000000000000000000000000800000010000000000200000000000000000000000004000000000000800000000000800000000000000000000000000000000000000000000000200000000000000000000000000000000000000000000000000000000000000000000000000000000000000000000000000020200000000000000000000000000000000000000000000000000000000000000000000000000000000000000000000000000000000000000000000000000000010000000000000000000000000000000000000000000000000000000000000",
      "type": "0x2",
      "transactionHash": "0xbd352cfd2a7d2abbf1eb2b17649c44f1c030fcd8a1b48a2879dcafdde7b19cfd",
      "transactionIndex": "0x2a",
      "blockHash": "0xb79a48b96af28bd8e3cdac01c7ac030538dc72f575319bd9fdfc4ddd6ae10457",
      "blockNumber": "0x18a0d3a",
      "gasUsed": "0xb865",
      "effectiveGasPrice": "0xf4628",
      "from": "0x19c50bfd73627b35f2ef3f7b0755229d42cd56a8",
      "to": "0xf51980a3455732b35852362e8a749ac67399fadf",
      "contractAddress": null,
      "l1BaseFeeScalar": "0x44d",
      "l1BlobBaseFee": "0x1",
      "l1BlobBaseFeeScalar": "0xa118b",
      "l1Fee": "0x889d50ddb",
      "l1GasPrice": "0x4d8d2762a",
      "l1GasUsed": "0x640"
    },
    {
      "status": "0x1",
      "cumulativeGasUsed": "0x808baf",
      "logs": [
        {
          "address": "0x000000000022d473030f116ddee9f6b43ac78ba3",
          "topics": [
            "0xda9fa7c1b00402c17d0161b249b1ab8bbec047c5a52207b9c112deffd817036b",
            "0x00000000000000000000000019c50bfd73627b35f2ef3f7b0755229d42cd56a8",
            "0x000000000000000000000000f51980a3455732b35852362e8a749ac67399fadf",
            "0x0000000000000000000000004b2c77d209d3405f41a037ec6c77f7f5b8e2ca80"
          ],
          "data": "0x000000000000000000000000ffffffffffffffffffffffffffffffffffffffff0000000000000000000000000000000000000000000000000000ffffffffffff",
          "blockHash": "0xb79a48b96af28bd8e3cdac01c7ac030538dc72f575319bd9fdfc4ddd6ae10457",
          "blockNumber": "0x18a0d3a",
          "blockTimestamp": "0x68277954",
          "transactionHash": "0x503e842ba37aa8cca0ba961347100e1feb65b00630fbbe63c4d860e763abc563",
          "transactionIndex": "0x2b",
          "logIndex": "0x41",
          "removed": false
        }
      ],
      "logsBloom": "0x00010000000000010000000000000000000200000000000000000000000000000000000000000080000000000000000000000000000000010008000010080000000000000000000000000000000000000000000000000000000000000000000000000000000000000000000000000000000000000000000200000000000000000020020000000000000000000001000000000000000000000000000000000000000000000000000000000000000000000000000000000000000000080000000000000000000000000000000000000000000000000000000040000000000000000000000000000000000000000000000000000000000000000000000000000400",
      "type": "0x2",
      "transactionHash": "0x503e842ba37aa8cca0ba961347100e1feb65b00630fbbe63c4d860e763abc563",
      "transactionIndex": "0x2b",
      "blockHash": "0xb79a48b96af28bd8e3cdac01c7ac030538dc72f575319bd9fdfc4ddd6ae10457",
      "blockNumber": "0x18a0d3a",
      "gasUsed": "0xbaca",
      "effectiveGasPrice": "0xf4628",
      "from": "0x19c50bfd73627b35f2ef3f7b0755229d42cd56a8",
      "to": "0x000000000022d473030f116ddee9f6b43ac78ba3",
      "contractAddress": null,
      "l1BaseFeeScalar": "0x44d",
      "l1BlobBaseFee": "0x1",
      "l1BlobBaseFeeScalar": "0xa118b",
      "l1Fee": "0x993c7bf7f",
      "l1GasPrice": "0x4d8d2762a",
      "l1GasUsed": "0x702"
    },
    {
      "status": "0x1",
      "cumulativeGasUsed": "0x8594a7",
      "logs": [
        {
          "address": "0x05e73354cfdd6745c338b50bcfdfa3aa6fa03408",
          "topics": [
            "0xdd466e674ea557f56295e2d0218a125ea4b4f0f6f3307b95f85e6110838d6438",
            "0x5c1ade81a409fdfcf53fff5e026b946ac95a0086f73c965c1f01bc6fd7648fb3",
            "0x0000000000000000000000000000000000000000000000000000000000000000",
            "0x000000000000000000000000f51980a3455732b35852362e8a749ac67399fadf"
          ],
          "data": "0x0000000000000000000000000000000000000000000000000000000000000bb8000000000000000000000000000000000000000000000000000000000000003c000000000000000000000000ce7e5acc2e1c3095b52846cf07bafa1b8854004000000000000000000000000000000000000000000000000d94ff8c32b102938afffffffffffffffffffffffffffffffffffffffffffffffffffffffffffa06dd",
          "blockHash": "0xb79a48b96af28bd8e3cdac01c7ac030538dc72f575319bd9fdfc4ddd6ae10457",
          "blockNumber": "0x18a0d3a",
          "blockTimestamp": "0x68277954",
          "transactionHash": "0xcbb03ab91e037ec24f6a4bd967e1a0b84e5a99733c4973631a5605d3e4d8c68a",
          "transactionIndex": "0x2c",
          "logIndex": "0x42",
          "removed": false
        },
        {
          "address": "0x4b2c77d209d3405f41a037ec6c77f7f5b8e2ca80",
          "topics": [
            "0xddf252ad1be2c89b69c2b068fc378daa952ba7f163c4a11628f55a4df523b3ef",
            "0x0000000000000000000000000000000000000000000000000000000000000000",
            "0x0000000000000000000000005b73c5498c1e3b4dba84de0f1833c4a029d90519",
            "0x00000000000000000000000000000000000000000000000000000000000003ab"
          ],
          "data": "0x",
          "blockHash": "0xb79a48b96af28bd8e3cdac01c7ac030538dc72f575319bd9fdfc4ddd6ae10457",
          "blockNumber": "0x18a0d3a",
          "blockTimestamp": "0x68277954",
          "transactionHash": "0xcbb03ab91e037ec24f6a4bd967e1a0b84e5a99733c4973631a5605d3e4d8c68a",
          "transactionIndex": "0x2c",
          "logIndex": "0x43",
          "removed": false
        },
        {
          "address": "0x05e73354cfdd6745c338b50bcfdfa3aa6fa03408",
          "topics": [
            "0xf208f4912782fd25c7f114ca3723a2d5dd6f3bcc3ac8db5af63baa85f711d5ec",
            "0x5c1ade81a409fdfcf53fff5e026b946ac95a0086f73c965c1f01bc6fd7648fb3",
            "0x0000000000000000000000004b2c77d209d3405f41a037ec6c77f7f5b8e2ca80"
          ],
          "data": "0xfffffffffffffffffffffffffffffffffffffffffffffffffffffffffffffda80000000000000000000000000000000000000000000000000000000000000258000000000000000000000000000000000000000000000000003b34bac372518000000000000000000000000000000000000000000000000000000000000003ab",
          "blockHash": "0xb79a48b96af28bd8e3cdac01c7ac030538dc72f575319bd9fdfc4ddd6ae10457",
          "blockNumber": "0x18a0d3a",
          "blockTimestamp": "0x68277954",
          "transactionHash": "0xcbb03ab91e037ec24f6a4bd967e1a0b84e5a99733c4973631a5605d3e4d8c68a",
          "transactionIndex": "0x2c",
          "logIndex": "0x44",
          "removed": false
        }
      ],
      "logsBloom": "0x00000000000000010000000000000000000000000000000000000000000000040100000100000000000000000000000000000080000000000008000010000800000000400000000000000008000000000000000000000000000000008000000000000000020000000100000000400800008000000000000200000010000000000000020005000008000000000001000000000001000000000000000000200000000004000000000000000002000000000000000000000000000000000000000000000002001000000000000000000000000000000000000000000000000020000000000000000000000000000000000004000000000000000000000000000200",
      "type": "0x2",
      "transactionHash": "0xcbb03ab91e037ec24f6a4bd967e1a0b84e5a99733c4973631a5605d3e4d8c68a",
      "transactionIndex": "0x2c",
      "blockHash": "0xb79a48b96af28bd8e3cdac01c7ac030538dc72f575319bd9fdfc4ddd6ae10457",
      "blockNumber": "0x18a0d3a",
      "gasUsed": "0x508f8",
      "effectiveGasPrice": "0xf4628",
      "from": "0x19c50bfd73627b35f2ef3f7b0755229d42cd56a8",
      "to": "0x4b2c77d209d3405f41a037ec6c77f7f5b8e2ca80",
      "contractAddress": null,
      "l1BaseFeeScalar": "0x44d",
      "l1BlobBaseFee": "0x1",
      "l1BlobBaseFeeScalar": "0xa118b",
      "l1Fee": "0x195ca6de3e",
      "l1GasPrice": "0x4d8d2762a",
      "l1GasUsed": "0x1290"
    }
  ],
  "libraries": [],
  "pending": [],
  "returns": {},
  "timestamp": 1747417425,
  "chain": 84532,
  "commit": "18ecf0c"
}