{
  "transactions": [
    {
      "hash": "0xce585546b833baa02da8135ead983dedcc7cf2fd00a489bf19b3631afe6f974f",
      "transactionType": "CALL",
      "contractName": null,
      "contractAddress": "0xf51980a3455732b35852362e8a749ac67399fadf",
      "function": "approve(address,uint256)",
      "arguments": [
        "0x000000000022D473030F116dDEE9F6B43aC78BA3",
        "115792089237316195423570985008687907853269984665640564039457584007913129639935"
      ],
      "transaction": {
        "from": "0x19c50bfd73627b35f2ef3f7b0755229d42cd56a8",
        "to": "0xf51980a3455732b35852362e8a749ac67399fadf",
        "gas": "0x9bfd",
        "value": "0x0",
        "input": "0x095ea7b3000000000000000000000000000000000022d473030f116ddee9f6b43ac78ba3ffffffffffffffffffffffffffffffffffffffffffffffffffffffffffffffff",
        "nonce": "0x63",
        "chainId": "0x14a34"
      },
      "additionalContracts": [],
      "isFixedGasLimit": false
    },
    {
      "hash": "0x405f4f69c6bc91a2c34462aa89a424432c3c024c19f0dda3b3a1916386a3408f",
      "transactionType": "CALL",
      "contractName": null,
      "contractAddress": "0x000000000022d473030f116ddee9f6b43ac78ba3",
      "function": "approve(address,address,uint160,uint48)",
      "arguments": [
        "0xF51980A3455732B35852362E8a749ac67399FAdF",
        "0x4B2C77d209D3405F41a037Ec6c77F7F5b8e2ca80",
        "1461501637330902918203684832716283019655932542975",
        "281474976710655"
      ],
      "transaction": {
        "from": "0x19c50bfd73627b35f2ef3f7b0755229d42cd56a8",
        "to": "0x000000000022d473030f116ddee9f6b43ac78ba3",
        "gas": "0x96a0",
        "value": "0x0",
        "input": "0x87517c45000000000000000000000000f51980a3455732b35852362e8a749ac67399fadf0000000000000000000000004b2c77d209d3405f41a037ec6c77f7f5b8e2ca80000000000000000000000000ffffffffffffffffffffffffffffffffffffffff0000000000000000000000000000000000000000000000000000ffffffffffff",
        "nonce": "0x64",
        "chainId": "0x14a34"
      },
      "additionalContracts": [],
      "isFixedGasLimit": false
    },
    {
      "hash": "0x56490b461b5a828bbcacfc4237ffa2db85026c96ae3694dd308992b0170eb21a",
      "transactionType": "CALL",
      "contractName": null,
      "contractAddress": "0x4b2c77d209d3405f41a037ec6c77f7f5b8e2ca80",
      "function": "multicall(bytes[])",
      "arguments": [
        "[0xf70204050000000000000000000000000000000000000000000000000000000000000000000000000000000000000000f51980a3455732b35852362e8a749ac67399fadf0000000000000000000000000000000000000000000000000000000000000bb8000000000000000000000000000000000000000000000000000000000000003c000000000000000000000000ce7e5acc2e1c3095b52846cf07bafa1b8854004000000000000000000000000000000000000000000000000d94ff8c32b102938a00000000000000000000000000000000000000000000000000000000000000e00000000000000000000000000000000000000000000000000000000000000000, 0xdd46508f00000000000000000000000000000000000000000000000000000000000000400000000000000000000000000000000000000000000000000000000068277aca0000000000000000000000000000000000000000000000000000000000000300000000000000000000000000000000000000000000000000000000000000004000000000000000000000000000000000000000000000000000000000000000800000000000000000000000000000000000000000000000000000000000000002020d00000000000000000000000000000000000000000000000000000000000000000000000000000000000000000000000000000000000000000000000000020000000000000000000000000000000000000000000000000000000000000040000000000000000000000000000000000000000000000000000000000000020000000000000000000000000000000000000000000000000000000000000001a00000000000000000000000000000000000000000000000000000000000000000000000000000000000000000f51980a3455732b35852362e8a749ac67399fadf0000000000000000000000000000000000000000000000000000000000000bb8000000000000000000000000000000000000000000000000000000000000003c000000000000000000000000ce7e5acc2e1c3095b52846cf07bafa1b88540040fffffffffffffffffffffffffffffffffffffffffffffffffffffffffffffda80000000000000000000000000000000000000000000000000000000000000258000000000000000000000000000000000000000000000000003b34bac372518000000000000000000000000000000000000000000000000000038d7ea4c6800100000000000000000000000000000000000000000000003635c9adc5dea000010000000000000000000000005b73c5498c1e3b4dba84de0f1833c4a029d905190000000000000000000000000000000000000000000000000000000000000180000000000000000000000000000000000000000000000000000000000000000000000000000000000000000000000000000000000000000000000000000000400000000000000000000000000000000000000000000000000000000000000000000000000000000000000000f51980a3455732b35852362e8a749ac67399fadf]"
      ],
      "transaction": {
        "from": "0x19c50bfd73627b35f2ef3f7b0755229d42cd56a8",
        "to": "0x4b2c77d209d3405f41a037ec6c77f7f5b8e2ca80",
        "gas": "0x3d4eb",
        "value": "0x38d7ea4c68001",
        "input": "0xac9650d800000000000000000000000000000000000000000000000000000000000000200000000000000000000000000000000000000000000000000000000000000002000000000000000000000000000000000000000000000000000000000000004000000000000000000000000000000000000000000000000000000000000001800000000000000000000000000000000000000000000000000000000000000104f70204050000000000000000000000000000000000000000000000000000000000000000000000000000000000000000f51980a3455732b35852362e8a749ac67399fadf0000000000000000000000000000000000000000000000000000000000000bb8000000000000000000000000000000000000000000000000000000000000003c000000000000000000000000ce7e5acc2e1c3095b52846cf07bafa1b8854004000000000000000000000000000000000000000000000000d94ff8c32b102938a00000000000000000000000000000000000000000000000000000000000000e00000000000000000000000000000000000000000000000000000000000000000000000000000000000000000000000000000000000000000000000000000000000000000000000000000000000000000000000000000000000000364dd46508f00000000000000000000000000000000000000000000000000000000000000400000000000000000000000000000000000000000000000000000000068277aca0000000000000000000000000000000000000000000000000000000000000300000000000000000000000000000000000000000000000000000000000000004000000000000000000000000000000000000000000000000000000000000000800000000000000000000000000000000000000000000000000000000000000002020d00000000000000000000000000000000000000000000000000000000000000000000000000000000000000000000000000000000000000000000000000020000000000000000000000000000000000000000000000000000000000000040000000000000000000000000000000000000000000000000000000000000020000000000000000000000000000000000000000000000000000000000000001a00000000000000000000000000000000000000000000000000000000000000000000000000000000000000000f51980a3455732b35852362e8a749ac67399fadf0000000000000000000000000000000000000000000000000000000000000bb8000000000000000000000000000000000000000000000000000000000000003c000000000000000000000000ce7e5acc2e1c3095b52846cf07bafa1b88540040fffffffffffffffffffffffffffffffffffffffffffffffffffffffffffffda80000000000000000000000000000000000000000000000000000000000000258000000000000000000000000000000000000000000000000003b34bac372518000000000000000000000000000000000000000000000000000038d7ea4c6800100000000000000000000000000000000000000000000003635c9adc5dea000010000000000000000000000005b73c5498c1e3b4dba84de0f1833c4a029d905190000000000000000000000000000000000000000000000000000000000000180000000000000000000000000000000000000000000000000000000000000000000000000000000000000000000000000000000000000000000000000000000400000000000000000000000000000000000000000000000000000000000000000000000000000000000000000f51980a3455732b35852362e8a749ac67399fadf00000000000000000000000000000000000000000000000000000000",
        "nonce": "0x65",
        "chainId": "0x14a34"
      },
      "additionalContracts": [],
      "isFixedGasLimit": false
    }
  ],
  "receipts": [
    {
      "status": "0x1",
      "cumulativeGasUsed": "0x8160f0",
      "logs": [
        {
          "address": "0xf51980a3455732b35852362e8a749ac67399fadf",
          "topics": [
            "0x8c5be1e5ebec7d5bd14f71427d1e84f3dd0314c0f7b2291e5b200ac8c7c3b925",
            "0x00000000000000000000000019c50bfd73627b35f2ef3f7b0755229d42cd56a8",
            "0x000000000000000000000000000000000022d473030f116ddee9f6b43ac78ba3"
          ],
          "data": "0xffffffffffffffffffffffffffffffffffffffffffffffffffffffffffffffff",
          "blockHash": "0x49dd2c6aea9b50a304e38e7052ba5a38c37451b6391406ee0a4932c12329809a",
          "blockNumber": "0x18a0ddc",
          "blockTimestamp": "0x68277a98",
          "transactionHash": "0xce585546b833baa02da8135ead983dedcc7cf2fd00a489bf19b3631afe6f974f",
          "transactionIndex": "0x50",
          "logIndex": "0x7b",
          "removed": false
        }
      ],
      "logsBloom": "0x00000000000000000000000000000000000200000000000000000000000000000000000000000080000000000000000000000000800000010000000000200000000000000000000000004000000000000800000000000800000000000000000000000000000000000000000000000200000000000000000000000000000000000000000000000000000000000000000000000000000000000000000000000000020200000000000000000000000000000000000000000000000000000000000000000000000000000000000000000000000000000000000000000000000000000010000000000000000000000000000000000000000000000000000000000000",
      "type": "0x2",
      "transactionHash": "0xce585546b833baa02da8135ead983dedcc7cf2fd00a489bf19b3631afe6f974f",
      "transactionIndex": "0x50",
      "blockHash": "0x49dd2c6aea9b50a304e38e7052ba5a38c37451b6391406ee0a4932c12329809a",
      "blockNumber": "0x18a0ddc",
      "gasUsed": "0x6aa9",
      "effectiveGasPrice": "0xf4628",
      "from": "0x19c50bfd73627b35f2ef3f7b0755229d42cd56a8",
      "to": "0xf51980a3455732b35852362e8a749ac67399fadf",
      "contractAddress": null,
      "l1BaseFeeScalar": "0x44d",
      "l1BlobBaseFee": "0x1",
      "l1BlobBaseFeeScalar": "0xa118b",
      "l1Fee": "0x96fa09b87",
      "l1GasPrice": "0x55b44d96c",
      "l1GasUsed": "0x640"
    },
    {
      "status": "0x1",
      "cumulativeGasUsed": "0x81cdfe",
      "logs": [
        {
          "address": "0x000000000022d473030f116ddee9f6b43ac78ba3",
          "topics": [
            "0xda9fa7c1b00402c17d0161b249b1ab8bbec047c5a52207b9c112deffd817036b",
            "0x00000000000000000000000019c50bfd73627b35f2ef3f7b0755229d42cd56a8",
            "0x000000000000000000000000f51980a3455732b35852362e8a749ac67399fadf",
            "0x0000000000000000000000004b2c77d209d3405f41a037ec6c77f7f5b8e2ca80"
          ],
          "data": "0x000000000000000000000000ffffffffffffffffffffffffffffffffffffffff0000000000000000000000000000000000000000000000000000ffffffffffff",
          "blockHash": "0x6c3358b460a0aa8c5bc688d466e163c28725044a8d008ef6c322781905c385bc",
          "blockNumber": "0x18a0ddc",
          "blockTimestamp": "0x68277a98",
          "transactionHash": "0x405f4f69c6bc91a2c34462aa89a424432c3c024c19f0dda3b3a1916386a3408f",
          "transactionIndex": "0x51",
          "logIndex": "0x7c",
          "removed": false
        }
      ],
      "logsBloom": "0x00010000000000010000000000000000000200000000000000000000000000000000000000000080000000000000000000000000000000010008000010080000000000000000000000000000000000000000000000000000000000000000000000000000000000000000000000000000000000000000000200000000000000000020020000000000000000000001000000000000000000000000000000000000000000000000000000000000000000000000000000000000000000080000000000000000000000000000000000000000000000000000000040000000000000000000000000000000000000000000000000000000000000000000000000000400",
      "type": "0x2",
      "transactionHash": "0x405f4f69c6bc91a2c34462aa89a424432c3c024c19f0dda3b3a1916386a3408f",
      "transactionIndex": "0x51",
      "blockHash": "0x6c3358b460a0aa8c5bc688d466e163c28725044a8d008ef6c322781905c385bc",
      "blockNumber": "0x18a0ddc",
      "gasUsed": "0x6d0e",
      "effectiveGasPrice": "0xf4628",
      "from": "0x19c50bfd73627b35f2ef3f7b0755229d42cd56a8",
      "to": "0x000000000022d473030f116ddee9f6b43ac78ba3",
      "contractAddress": null,
      "l1BaseFeeScalar": "0x44d",
      "l1BlobBaseFee": "0x1",
      "l1BlobBaseFeeScalar": "0xa118b",
      "l1Fee": "0xa8153deb6",
      "l1GasPrice": "0x55b44d96c",
      "l1GasUsed": "0x6f5"
    },
    {
      "status": "0x1",
      "cumulativeGasUsed": "0x84942a",
      "logs": [
        {
          "address": "0x4b2c77d209d3405f41a037ec6c77f7f5b8e2ca80",
          "topics": [
            "0xddf252ad1be2c89b69c2b068fc378daa952ba7f163c4a11628f55a4df523b3ef",
            "0x0000000000000000000000000000000000000000000000000000000000000000",
            "0x0000000000000000000000005b73c5498c1e3b4dba84de0f1833c4a029d90519",
            "0x00000000000000000000000000000000000000000000000000000000000003ac"
          ],
          "data": "0x",
          "blockHash": "0x6c3358b460a0aa8c5bc688d466e163c28725044a8d008ef6c322781905c385bc",
          "blockNumber": "0x18a0ddc",
          "blockTimestamp": "0x68277a98",
          "transactionHash": "0x56490b461b5a828bbcacfc4237ffa2db85026c96ae3694dd308992b0170eb21a",
          "transactionIndex": "0x52",
          "logIndex": "0x7d",
          "removed": false
        },
        {
          "address": "0x05e73354cfdd6745c338b50bcfdfa3aa6fa03408",
          "topics": [
            "0xf208f4912782fd25c7f114ca3723a2d5dd6f3bcc3ac8db5af63baa85f711d5ec",
            "0x5c1ade81a409fdfcf53fff5e026b946ac95a0086f73c965c1f01bc6fd7648fb3",
            "0x0000000000000000000000004b2c77d209d3405f41a037ec6c77f7f5b8e2ca80"
          ],
          "data": "0xfffffffffffffffffffffffffffffffffffffffffffffffffffffffffffffda80000000000000000000000000000000000000000000000000000000000000258000000000000000000000000000000000000000000000000003b34bac372518000000000000000000000000000000000000000000000000000000000000003ac",
          "blockHash": "0x6c3358b460a0aa8c5bc688d466e163c28725044a8d008ef6c322781905c385bc",
          "blockNumber": "0x18a0ddc",
          "blockTimestamp": "0x68277a98",
          "transactionHash": "0x56490b461b5a828bbcacfc4237ffa2db85026c96ae3694dd308992b0170eb21a",
          "transactionIndex": "0x52",
          "logIndex": "0x7e",
          "removed": false
        }
      ],
      "logsBloom": "0x00000000000000010000000000200000000000000000000000000000000000000100000100000000000000000000000000000080000000000008000010000800000000400002000000000108000000000000000000000000000000008000000000000000020000000000000000000800008000000000000000000010000000000000000005000000000000000000000000000000000000000000000000000000000004000000000000000002000000000000000000000000000000000000000000000002001000000000000000000000000000000000000000000000000020000000000000000000000000000000000004000000000000000000000000000200",
      "type": "0x2",
      "transactionHash": "0x56490b461b5a828bbcacfc4237ffa2db85026c96ae3694dd308992b0170eb21a",
      "transactionIndex": "0x52",
      "blockHash": "0x6c3358b460a0aa8c5bc688d466e163c28725044a8d008ef6c322781905c385bc",
      "blockNumber": "0x18a0ddc",
      "gasUsed": "0x2c62c",
      "effectiveGasPrice": "0xf4628",
      "from": "0x19c50bfd73627b35f2ef3f7b0755229d42cd56a8",
      "to": "0x4b2c77d209d3405f41a037ec6c77f7f5b8e2ca80",
      "contractAddress": null,
      "l1BaseFeeScalar": "0x44d",
      "l1BlobBaseFee": "0x1",
      "l1BlobBaseFeeScalar": "0xa118b",
      "l1Fee": "0x1c073859a6",
      "l1GasPrice": "0x55b44d96c",
      "l1GasUsed": "0x1290"
    }
  ],
  "libraries": [],
  "pending": [],
  "returns": {},
  "timestamp": 1747417749,
  "chain": 84532,
  "commit": "18ecf0c"
}