{
  "transactions": [
    {
      "hash": "0x26d35378e463b64f5791228991862f7a9347264c8894c0b548672dbcb69542bf",
      "transactionType": "CALL",
      "contractName": null,
      "contractAddress": "0x5c602c98ad2434c86d83f956bf3b22323dde7f85",
      "function": "approve(address,uint256)",
      "arguments": [
        "0x000000000022D473030F116dDEE9F6B43aC78BA3",
        "115792089237316195423570985008687907853269984665640564039457584007913129639935"
      ],
      "transaction": {
        "from": "0x19c50bfd73627b35f2ef3f7b0755229d42cd56a8",
        "to": "0x5c602c98ad2434c86d83f956bf3b22323dde7f85",
        "gas": "0x9bfd",
        "value": "0x0",
        "input": "0x095ea7b3000000000000000000000000000000000022d473030f116ddee9f6b43ac78ba3ffffffffffffffffffffffffffffffffffffffffffffffffffffffffffffffff",
        "nonce": "0x69",
        "chainId": "0x14a34"
      },
      "additionalContracts": [],
      "isFixedGasLimit": false
    },
    {
      "hash": "0x698bb1c05c5c375e34a0c382445d359dfb0d67d41492e7a8421eaa08300f1c51",
      "transactionType": "CALL",
      "contractName": null,
      "contractAddress": "0x000000000022d473030f116ddee9f6b43ac78ba3",
      "function": "approve(address,address,uint160,uint48)",
      "arguments": [
        "0x5c602C98Ad2434c86D83f956bF3B22323dDe7f85",
        "0x4B2C77d209D3405F41a037Ec6c77F7F5b8e2ca80",
        "1461501637330902918203684832716283019655932542975",
        "281474976710655"
      ],
      "transaction": {
        "from": "0x19c50bfd73627b35f2ef3f7b0755229d42cd56a8",
        "to": "0x000000000022d473030f116ddee9f6b43ac78ba3",
        "gas": "0x96a0",
        "value": "0x0",
        "input": "0x87517c450000000000000000000000005c602c98ad2434c86d83f956bf3b22323dde7f850000000000000000000000004b2c77d209d3405f41a037ec6c77f7f5b8e2ca80000000000000000000000000ffffffffffffffffffffffffffffffffffffffff0000000000000000000000000000000000000000000000000000ffffffffffff",
        "nonce": "0x6a",
        "chainId": "0x14a34"
      },
      "additionalContracts": [],
      "isFixedGasLimit": false
    },
    {
      "hash": "0xbf2aed29f226668936c4676ab1e6b64902889d19af589644327929212090dff5",
      "transactionType": "CALL",
      "contractName": null,
      "contractAddress": "0xf51980a3455732b35852362e8a749ac67399fadf",
      "function": "approve(address,uint256)",
      "arguments": [
        "0x000000000022D473030F116dDEE9F6B43aC78BA3",
        "115792089237316195423570985008687907853269984665640564039457584007913129639935"
      ],
      "transaction": {
        "from": "0x19c50bfd73627b35f2ef3f7b0755229d42cd56a8",
        "to": "0xf51980a3455732b35852362e8a749ac67399fadf",
        "gas": "0x9bfd",
        "value": "0x0",
        "input": "0x095ea7b3000000000000000000000000000000000022d473030f116ddee9f6b43ac78ba3ffffffffffffffffffffffffffffffffffffffffffffffffffffffffffffffff",
        "nonce": "0x6b",
        "chainId": "0x14a34"
      },
      "additionalContracts": [],
      "isFixedGasLimit": false
    },
    {
      "hash": "0x9e55245810d6fd09d011531c5a9a81b2b3f69a448406bde88f78cd0a34ad7f27",
      "transactionType": "CALL",
      "contractName": null,
      "contractAddress": "0x000000000022d473030f116ddee9f6b43ac78ba3",
      "function": "approve(address,address,uint160,uint48)",
      "arguments": [
        "0xF51980A3455732B35852362E8a749ac67399FAdF",
        "0x4B2C77d209D3405F41a037Ec6c77F7F5b8e2ca80",
        "1461501637330902918203684832716283019655932542975",
        "281474976710655"
      ],
      "transaction": {
        "from": "0x19c50bfd73627b35f2ef3f7b0755229d42cd56a8",
        "to": "0x000000000022d473030f116ddee9f6b43ac78ba3",
        "gas": "0x96a0",
        "value": "0x0",
        "input": "0x87517c45000000000000000000000000f51980a3455732b35852362e8a749ac67399fadf0000000000000000000000004b2c77d209d3405f41a037ec6c77f7f5b8e2ca80000000000000000000000000ffffffffffffffffffffffffffffffffffffffff0000000000000000000000000000000000000000000000000000ffffffffffff",
        "nonce": "0x6c",
        "chainId": "0x14a34"
      },
      "additionalContracts": [],
      "isFixedGasLimit": false
    },
    {
      "hash": "0x03e90b064bfdfec614b76c5e199676e9068b0aeeafe8aaa8e8601b0230258258",
      "transactionType": "CALL",
      "contractName": null,
      "contractAddress": "0x4b2c77d209d3405f41a037ec6c77f7f5b8e2ca80",
      "function": "multicall(bytes[])",
      "arguments": [
        "[0xf70204050000000000000000000000005c602c98ad2434c86d83f956bf3b22323dde7f85000000000000000000000000f51980a3455732b35852362e8a749ac67399fadf0000000000000000000000000000000000000000000000000000000000000bb8000000000000000000000000000000000000000000000000000000000000003c000000000000000000000000ce7e5acc2e1c3095b52846cf07bafa1b88540040000000000000000000000000000000000000000050f3449793f6349328837d6100000000000000000000000000000000000000000000000000000000000000e00000000000000000000000000000000000000000000000000000000000000000, 0xdd46508f0000000000000000000000000000000000000000000000000000000000000040000000000000000000000000000000000000000000000000000000006827afb00000000000000000000000000000000000000000000000000000000000000300000000000000000000000000000000000000000000000000000000000000004000000000000000000000000000000000000000000000000000000000000000800000000000000000000000000000000000000000000000000000000000000002020d00000000000000000000000000000000000000000000000000000000000000000000000000000000000000000000000000000000000000000000000000020000000000000000000000000000000000000000000000000000000000000040000000000000000000000000000000000000000000000000000000000000020000000000000000000000000000000000000000000000000000000000000001a00000000000000000000000005c602c98ad2434c86d83f956bf3b22323dde7f85000000000000000000000000f51980a3455732b35852362e8a749ac67399fadf0000000000000000000000000000000000000000000000000000000000000bb8000000000000000000000000000000000000000000000000000000000000003c000000000000000000000000ce7e5acc2e1c3095b52846cf07bafa1b88540040fffffffffffffffffffffffffffffffffffffffffffffffffffffffffffffda8000000000000000000000000000000000000000000000000000000000000025800000000000000000000000000000000000000000089d982ce02e1b9caadbe78000000000000000000000000000000000000000000084595161401484a00000100000000000000000000000000000000000000000000003635c9adc5dea000010000000000000000000000005b73c5498c1e3b4dba84de0f1833c4a029d905190000000000000000000000000000000000000000000000000000000000000180000000000000000000000000000000000000000000000000000000000000000000000000000000000000000000000000000000000000000000000000000000400000000000000000000000005c602c98ad2434c86d83f956bf3b22323dde7f85000000000000000000000000f51980a3455732b35852362e8a749ac67399fadf]"
      ],
      "transaction": {
        "from": "0x19c50bfd73627b35f2ef3f7b0755229d42cd56a8",
        "to": "0x4b2c77d209d3405f41a037ec6c77f7f5b8e2ca80",
        "gas": "0x7d88a",
        "value": "0x0",
        "input": "0xac9650d800000000000000000000000000000000000000000000000000000000000000200000000000000000000000000000000000000000000000000000000000000002000000000000000000000000000000000000000000000000000000000000004000000000000000000000000000000000000000000000000000000000000001800000000000000000000000000000000000000000000000000000000000000104f70204050000000000000000000000005c602c98ad2434c86d83f956bf3b22323dde7f85000000000000000000000000f51980a3455732b35852362e8a749ac67399fadf0000000000000000000000000000000000000000000000000000000000000bb8000000000000000000000000000000000000000000000000000000000000003c000000000000000000000000ce7e5acc2e1c3095b52846cf07bafa1b88540040000000000000000000000000000000000000000050f3449793f6349328837d6100000000000000000000000000000000000000000000000000000000000000e00000000000000000000000000000000000000000000000000000000000000000000000000000000000000000000000000000000000000000000000000000000000000000000000000000000000000000000000000000000000000364dd46508f0000000000000000000000000000000000000000000000000000000000000040000000000000000000000000000000000000000000000000000000006827afb00000000000000000000000000000000000000000000000000000000000000300000000000000000000000000000000000000000000000000000000000000004000000000000000000000000000000000000000000000000000000000000000800000000000000000000000000000000000000000000000000000000000000002020d00000000000000000000000000000000000000000000000000000000000000000000000000000000000000000000000000000000000000000000000000020000000000000000000000000000000000000000000000000000000000000040000000000000000000000000000000000000000000000000000000000000020000000000000000000000000000000000000000000000000000000000000001a00000000000000000000000005c602c98ad2434c86d83f956bf3b22323dde7f85000000000000000000000000f51980a3455732b35852362e8a749ac67399fadf0000000000000000000000000000000000000000000000000000000000000bb8000000000000000000000000000000000000000000000000000000000000003c000000000000000000000000ce7e5acc2e1c3095b52846cf07bafa1b88540040fffffffffffffffffffffffffffffffffffffffffffffffffffffffffffffda8000000000000000000000000000000000000000000000000000000000000025800000000000000000000000000000000000000000089d982ce02e1b9caadbe78000000000000000000000000000000000000000000084595161401484a00000100000000000000000000000000000000000000000000003635c9adc5dea000010000000000000000000000005b73c5498c1e3b4dba84de0f1833c4a029d905190000000000000000000000000000000000000000000000000000000000000180000000000000000000000000000000000000000000000000000000000000000000000000000000000000000000000000000000000000000000000000000000400000000000000000000000005c602c98ad2434c86d83f956bf3b22323dde7f85000000000000000000000000f51980a3455732b35852362e8a749ac67399fadf00000000000000000000000000000000000000000000000000000000",
        "nonce": "0x6d",
        "chainId": "0x14a34"
      },
      "additionalContracts": [],
      "isFixedGasLimit": false
    }
  ],
  "receipts": [
    {
      "status": "0x1",
      "cumulativeGasUsed": "0x25e30e",
      "logs": [
        {
          "address": "0x5c602c98ad2434c86d83f956bf3b22323dde7f85",
          "topics": [
            "0x8c5be1e5ebec7d5bd14f71427d1e84f3dd0314c0f7b2291e5b200ac8c7c3b925",
            "0x00000000000000000000000019c50bfd73627b35f2ef3f7b0755229d42cd56a8",
            "0x000000000000000000000000000000000022d473030f116ddee9f6b43ac78ba3"
          ],
          "data": "0xffffffffffffffffffffffffffffffffffffffffffffffffffffffffffffffff",
          "blockHash": "0xf2b73f2ddcc73e53e38b4215b3be0303b688c508900fd721d9f6446d1e74a57b",
          "blockNumber": "0x18a2857",
          "blockTimestamp": "0x6827af8e",
          "transactionHash": "0x26d35378e463b64f5791228991862f7a9347264c8894c0b548672dbcb69542bf",
          "transactionIndex": "0x1b",
          "logIndex": "0x3a",
          "removed": false
        }
      ],
      "logsBloom": "0x00000000000000000000000000000000000200000000001000000000000000000000000000000080000000000000000000000000800000010000000000200000000000000000000000004000000000000000000000000800000000000000000000000000000000000000000000000000000000000000000000000000002000000000000000000000000000080000000000000000000000000000000000000000020000000000000000000000000000000000000000000000000000000000000000000000000000000000000000000000000000000000000000000000000000000010000000000000000000000000000000000000000000000000000000000000",
      "type": "0x2",
      "transactionHash": "0x26d35378e463b64f5791228991862f7a9347264c8894c0b548672dbcb69542bf",
      "transactionIndex": "0x1b",
      "blockHash": "0xf2b73f2ddcc73e53e38b4215b3be0303b688c508900fd721d9f6446d1e74a57b",
      "blockNumber": "0x18a2857",
      "gasUsed": "0x6aa9",
      "effectiveGasPrice": "0xf45b2",
      "from": "0x19c50bfd73627b35f2ef3f7b0755229d42cd56a8",
      "to": "0x5c602c98ad2434c86d83f956bf3b22323dde7f85",
      "contractAddress": null,
      "l1BaseFeeScalar": "0x44d",
      "l1BlobBaseFee": "0x588405",
      "l1BlobBaseFeeScalar": "0xa118b",
      "l1Fee": "0x6eb64b74",
      "l1GasPrice": "0x31e55ffe",
      "l1GasUsed": "0x640"
    },
    {
      "status": "0x1",
      "cumulativeGasUsed": "0x26501c",
      "logs": [
        {
          "address": "0x000000000022d473030f116ddee9f6b43ac78ba3",
          "topics": [
            "0xda9fa7c1b00402c17d0161b249b1ab8bbec047c5a52207b9c112deffd817036b",
            "0x00000000000000000000000019c50bfd73627b35f2ef3f7b0755229d42cd56a8",
            "0x0000000000000000000000005c602c98ad2434c86d83f956bf3b22323dde7f85",
            "0x0000000000000000000000004b2c77d209d3405f41a037ec6c77f7f5b8e2ca80"
          ],
          "data": "0x000000000000000000000000ffffffffffffffffffffffffffffffffffffffff0000000000000000000000000000000000000000000000000000ffffffffffff",
          "blockHash": "0xf0f8ce4a7922db523b9b582de0556cdfe50ddd9aa2ef1fdbe46ec18cc1fd4c80",
          "blockNumber": "0x18a2857",
          "blockTimestamp": "0x6827af8e",
          "transactionHash": "0x698bb1c05c5c375e34a0c382445d359dfb0d67d41492e7a8421eaa08300f1c51",
          "transactionIndex": "0x1c",
          "logIndex": "0x3b",
          "removed": false
        }
      ],
      "logsBloom": "0x00010000000000010000000000000000000200000000000000000000000000000000000000000080000000000000000000000000000000010008000010080000000000004000000000000000000000000000000000000000000000000000000000000400000000000000000000000000000000000000000000000000000000000020000000000000000000000000000000000000000000000000000000000000000000000000000000000000000000000000000000000000000000080000000000000000000000000002000000000000000000000000000040000000000000000000000000000000000000000000000000000000000000000000000000000400",
      "type": "0x2",
      "transactionHash": "0x698bb1c05c5c375e34a0c382445d359dfb0d67d41492e7a8421eaa08300f1c51",
      "transactionIndex": "0x1c",
      "blockHash": "0xf0f8ce4a7922db523b9b582de0556cdfe50ddd9aa2ef1fdbe46ec18cc1fd4c80",
      "blockNumber": "0x18a2857",
      "gasUsed": "0x6d0e",
      "effectiveGasPrice": "0xf45b2",
      "from": "0x19c50bfd73627b35f2ef3f7b0755229d42cd56a8",
      "to": "0x000000000022d473030f116ddee9f6b43ac78ba3",
      "contractAddress": null,
      "l1BaseFeeScalar": "0x44d",
      "l1BlobBaseFee": "0x588405",
      "l1BlobBaseFeeScalar": "0xa118b",
      "l1Fee": "0x7b419711",
      "l1GasPrice": "0x31e55ffe",
      "l1GasUsed": "0x6f5"
    },
    {
      "status": "0x1",
      "cumulativeGasUsed": "0x26bac5",
      "logs": [
        {
          "address": "0xf51980a3455732b35852362e8a749ac67399fadf",
          "topics": [
            "0x8c5be1e5ebec7d5bd14f71427d1e84f3dd0314c0f7b2291e5b200ac8c7c3b925",
            "0x00000000000000000000000019c50bfd73627b35f2ef3f7b0755229d42cd56a8",
            "0x000000000000000000000000000000000022d473030f116ddee9f6b43ac78ba3"
          ],
          "data": "0xffffffffffffffffffffffffffffffffffffffffffffffffffffffffffffffff",
          "blockHash": "0x20a0e84a18b61eaf3e7801392fbe759fdfeeaec30267f92a6a77e81e9411be7d",
          "blockNumber": "0x18a2857",
          "transactionHash": "0xbf2aed29f226668936c4676ab1e6b64902889d19af589644327929212090dff5",
          "transactionIndex": "0x1d",
          "logIndex": "0x3c",
          "removed": false
        }
      ],
      "logsBloom": "0x00000000000000000000000000000000000200000000000000000000000000000000000000000080000000000000000000000000800000010000000000200000000000000000000000004000000000000800000000000800000000000000000000000000000000000000000000000200000000000000000000000000000000000000000000000000000000000000000000000000000000000000000000000000020200000000000000000000000000000000000000000000000000000000000000000000000000000000000000000000000000000000000000000000000000000010000000000000000000000000000000000000000000000000000000000000",
      "type": "0x2",
      "transactionHash": "0xbf2aed29f226668936c4676ab1e6b64902889d19af589644327929212090dff5",
      "transactionIndex": "0x1d",
      "blockHash": "0x20a0e84a18b61eaf3e7801392fbe759fdfeeaec30267f92a6a77e81e9411be7d",
      "blockNumber": "0x18a2857",
      "gasUsed": "0x6aa9",
      "effectiveGasPrice": "0xf43f9",
      "from": "0x19c50bfd73627b35f2ef3f7b0755229d42cd56a8",
      "to": "0xf51980a3455732b35852362e8a749ac67399fadf",
      "contractAddress": null,
      "l1BaseFeeScalar": "0x44d",
      "l1BlobBaseFee": "0x588405",
      "l1BlobBaseFeeScalar": "0xa118b",
      "l1Fee": "0x6eb64b74",
      "l1GasPrice": "0x31e55ffe",
      "l1GasUsed": "0x640"
    },
    {
      "status": "0x1",
      "cumulativeGasUsed": "0x2727d3",
      "logs": [
        {
          "address": "0x000000000022d473030f116ddee9f6b43ac78ba3",
          "topics": [
            "0xda9fa7c1b00402c17d0161b249b1ab8bbec047c5a52207b9c112deffd817036b",
            "0x00000000000000000000000019c50bfd73627b35f2ef3f7b0755229d42cd56a8",
            "0x000000000000000000000000f51980a3455732b35852362e8a749ac67399fadf",
            "0x0000000000000000000000004b2c77d209d3405f41a037ec6c77f7f5b8e2ca80"
          ],
          "data": "0x000000000000000000000000ffffffffffffffffffffffffffffffffffffffff0000000000000000000000000000000000000000000000000000ffffffffffff",
          "blockHash": "0x41b35ab46dfd7f66034a15d75199416e87415b81b435b6dd52bcd8591970eadb",
          "blockNumber": "0x18a2857",
          "blockTimestamp": "0x6827af8e",
          "transactionHash": "0x9e55245810d6fd09d011531c5a9a81b2b3f69a448406bde88f78cd0a34ad7f27",
          "transactionIndex": "0x1e",
          "logIndex": "0x3d",
          "removed": false
        }
      ],
      "logsBloom": "0x00010000000000010000000000000000000200000000000000000000000000000000000000000080000000000000000000000000000000010008000010080000000000000000000000000000000000000000000000000000000000000000000000000000000000000000000000000000000000000000000200000000000000000020020000000000000000000001000000000000000000000000000000000000000000000000000000000000000000000000000000000000000000080000000000000000000000000000000000000000000000000000000040000000000000000000000000000000000000000000000000000000000000000000000000000400",
      "type": "0x2",
      "transactionHash": "0x9e55245810d6fd09d011531c5a9a81b2b3f69a448406bde88f78cd0a34ad7f27",
      "transactionIndex": "0x1e",
      "blockHash": "0x41b35ab46dfd7f66034a15d75199416e87415b81b435b6dd52bcd8591970eadb",
      "blockNumber": "0x18a2857",
      "gasUsed": "0x6d0e",
      "effectiveGasPrice": "0xf45b2",
      "from": "0x19c50bfd73627b35f2ef3f7b0755229d42cd56a8",
      "to": "0x000000000022d473030f116ddee9f6b43ac78ba3",
      "contractAddress": null,
      "l1BaseFeeScalar": "0x44d",
      "l1BlobBaseFee": "0x588405",
      "l1BlobBaseFeeScalar": "0xa118b",
      "l1Fee": "0x7b419711",
      "l1GasPrice": "0x31e55ffe",
      "l1GasUsed": "0x6f5"
    },
    {
      "status": "0x1",
      "cumulativeGasUsed": "0x2cd5f9",
      "logs": [
        {
          "address": "0x05e73354cfdd6745c338b50bcfdfa3aa6fa03408",
          "topics": [
            "0xdd466e674ea557f56295e2d0218a125ea4b4f0f6f3307b95f85e6110838d6438",
            "0x60ab7380ad3be47445bc04450117dca7e25600ef591e57e3bb0f484c86c03e51",
            "0x0000000000000000000000005c602c98ad2434c86d83f956bf3b22323dde7f85",
            "0x000000000000000000000000f51980a3455732b35852362e8a749ac67399fadf"
          ],
          "data": "0x0000000000000000000000000000000000000000000000000000000000000bb8000000000000000000000000000000000000000000000000000000000000003c000000000000000000000000ce7e5acc2e1c3095b52846cf07bafa1b88540040000000000000000000000000000000000000000050f3449793f6349328837d61ffffffffffffffffffffffffffffffffffffffffffffffffffffffffffffa60b",
          "blockHash": "0x20a0e84a18b61eaf3e7801392fbe759fdfeeaec30267f92a6a77e81e9411be7d",
          "blockNumber": "0x18a2857",
          "transactionHash": "0x03e90b064bfdfec614b76c5e199676e9068b0aeeafe8aaa8e8601b0230258258",
          "transactionIndex": "0x1f",
          "logIndex": "0x3e",
          "removed": false
        },
        {
          "address": "0x4b2c77d209d3405f41a037ec6c77f7f5b8e2ca80",
          "topics": [
            "0xddf252ad1be2c89b69c2b068fc378daa952ba7f163c4a11628f55a4df523b3ef",
            "0x0000000000000000000000000000000000000000000000000000000000000000",
            "0x0000000000000000000000005b73c5498c1e3b4dba84de0f1833c4a029d90519",
            "0x00000000000000000000000000000000000000000000000000000000000003af"
          ],
          "data": "0x",
          "blockHash": "0x20a0e84a18b61eaf3e7801392fbe759fdfeeaec30267f92a6a77e81e9411be7d",
          "blockNumber": "0x18a2857",
          "transactionHash": "0x03e90b064bfdfec614b76c5e199676e9068b0aeeafe8aaa8e8601b0230258258",
          "transactionIndex": "0x1f",
          "logIndex": "0x3f",
          "removed": false
        },
        {
          "address": "0x05e73354cfdd6745c338b50bcfdfa3aa6fa03408",
          "topics": [
            "0xf208f4912782fd25c7f114ca3723a2d5dd6f3bcc3ac8db5af63baa85f711d5ec",
            "0x60ab7380ad3be47445bc04450117dca7e25600ef591e57e3bb0f484c86c03e51",
            "0x0000000000000000000000004b2c77d209d3405f41a037ec6c77f7f5b8e2ca80"
          ],
          "data": "0xfffffffffffffffffffffffffffffffffffffffffffffffffffffffffffffda8000000000000000000000000000000000000000000000000000000000000025800000000000000000000000000000000000000000089d982ce02e1b9caadbe7800000000000000000000000000000000000000000000000000000000000003af",
          "blockHash": "0x20a0e84a18b61eaf3e7801392fbe759fdfeeaec30267f92a6a77e81e9411be7d",
          "blockNumber": "0x18a2857",
          "transactionHash": "0x03e90b064bfdfec614b76c5e199676e9068b0aeeafe8aaa8e8601b0230258258",
          "transactionIndex": "0x1f",
          "logIndex": "0x40",
          "removed": false
        },
        {
          "address": "0x5c602c98ad2434c86d83f956bf3b22323dde7f85",
          "topics": [
            "0xddf252ad1be2c89b69c2b068fc378daa952ba7f163c4a11628f55a4df523b3ef",
            "0x00000000000000000000000019c50bfd73627b35f2ef3f7b0755229d42cd56a8",
            "0x00000000000000000000000005e73354cfdd6745c338b50bcfdfa3aa6fa03408"
          ],
          "data": "0x000000000000000000000000000000000000000000084595161401484a000000",
          "blockHash": "0x20a0e84a18b61eaf3e7801392fbe759fdfeeaec30267f92a6a77e81e9411be7d",
          "blockNumber": "0x18a2857",
          "transactionHash": "0x03e90b064bfdfec614b76c5e199676e9068b0aeeafe8aaa8e8601b0230258258",
          "transactionIndex": "0x1f",
          "logIndex": "0x41",
          "removed": false
        }
      ],
      "logsBloom": "0x00000000004000010000000000000000000200000000001000000800000000000100000100000080000000000000000000000000000000010008000010000800000000004010000000000008000000000000000000100000000000008000000000200400020000000000000000000800008000000000000200000010002400000000020005000008000000080001000000000001000200000000000000200000000004000000000000000002000000000000000000000000000000000000000000000002001000000002000000000000000000800000000000000000000020000000000000000000000000000800000004000000000000000000000000000200",
      "type": "0x2",
      "transactionHash": "0x03e90b064bfdfec614b76c5e199676e9068b0aeeafe8aaa8e8601b0230258258",
      "transactionIndex": "0x1f",
      "blockHash": "0x20a0e84a18b61eaf3e7801392fbe759fdfeeaec30267f92a6a77e81e9411be7d",
      "blockNumber": "0x18a2857",
      "gasUsed": "0x5ae26",
      "effectiveGasPrice": "0xf43f9",
      "from": "0x19c50bfd73627b35f2ef3f7b0755229d42cd56a8",
      "to": "0x4b2c77d209d3405f41a037ec6c77f7f5b8e2ca80",
      "contractAddress": null,
      "l1BaseFeeScalar": "0x44d",
      "l1BlobBaseFee": "0x588405",
      "l1BlobBaseFeeScalar": "0xa118b",
      "l1Fee": "0x16a311492",
      "l1GasPrice": "0x31e55ffe",
      "l1GasUsed": "0x1472"
    }
  ],
  "libraries": [],
  "pending": [],
  "returns": {},
  "timestamp": 1747431308,
  "chain": 84532,
  "commit": "18ecf0c"
}