{
  "transactions": [
    {
      "hash": "0x3a66bb7b8e9e4547edad114a5cdff5bf30bed45037e02a8903cef2d07078999b",
      "transactionType": "CALL",
      "contractName": null,
      "contractAddress": "0x5c602c98ad2434c86d83f956bf3b22323dde7f85",
      "function": "approve(address,uint256)",
      "arguments": [
        "0x000000000022D473030F116dDEE9F6B43aC78BA3",
        "115792089237316195423570985008687907853269984665640564039457584007913129639935"
      ],
      "transaction": {
        "from": "0x19c50bfd73627b35f2ef3f7b0755229d42cd56a8",
        "to": "0x5c602c98ad2434c86d83f956bf3b22323dde7f85",
        "gas": "0x9bfd",
        "value": "0x0",
        "input": "0x095ea7b3000000000000000000000000000000000022d473030f116ddee9f6b43ac78ba3ffffffffffffffffffffffffffffffffffffffffffffffffffffffffffffffff",
        "nonce": "0x48",
        "chainId": "0x14a34"
      },
      "additionalContracts": [],
      "isFixedGasLimit": false
    },
    {
      "hash": "0x106aac8d1c6f53a73e1ebc60df1fdbf0489c6e93aa9bb4790790c4733509daea",
      "transactionType": "CALL",
      "contractName": null,
      "contractAddress": "0x000000000022d473030f116ddee9f6b43ac78ba3",
      "function": "approve(address,address,uint160,uint48)",
      "arguments": [
        "0x5c602C98Ad2434c86D83f956bF3B22323dDe7f85",
        "0x4B2C77d209D3405F41a037Ec6c77F7F5b8e2ca80",
        "1461501637330902918203684832716283019655932542975",
        "281474976710655"
      ],
      "transaction": {
        "from": "0x19c50bfd73627b35f2ef3f7b0755229d42cd56a8",
        "to": "0x000000000022d473030f116ddee9f6b43ac78ba3",
        "gas": "0x96a0",
        "value": "0x0",
        "input": "0x87517c450000000000000000000000005c602c98ad2434c86d83f956bf3b22323dde7f850000000000000000000000004b2c77d209d3405f41a037ec6c77f7f5b8e2ca80000000000000000000000000ffffffffffffffffffffffffffffffffffffffff0000000000000000000000000000000000000000000000000000ffffffffffff",
        "nonce": "0x49",
        "chainId": "0x14a34"
      },
      "additionalContracts": [],
      "isFixedGasLimit": false
    },
    {
      "hash": "0x1ec60b3ebbf4e6b009fb2e1f3f5565891edcc950103ba5872dc797c403c02323",
      "transactionType": "CALL",
      "contractName": null,
      "contractAddress": "0x4b2c77d209d3405f41a037ec6c77f7f5b8e2ca80",
      "function": "modifyLiquidities(bytes,uint256)",
      "arguments": [
        "0x000000000000000000000000000000000000000000000000000000000000004000000000000000000000000000000000000000000000000000000000000000800000000000000000000000000000000000000000000000000000000000000002020d00000000000000000000000000000000000000000000000000000000000000000000000000000000000000000000000000000000000000000000000000020000000000000000000000000000000000000000000000000000000000000040000000000000000000000000000000000000000000000000000000000000020000000000000000000000000000000000000000000000000000000000000001a000000000000000000000000000000000000000000000000000000000000000000000000000000000000000005c602c98ad2434c86d83f956bf3b22323dde7f850000000000000000000000000000000000000000000000000000000000000bb8000000000000000000000000000000000000000000000000000000000000003c000000000000000000000000ce7e5acc2e1c3095b52846cf07bafa1b88540040fffffffffffffffffffffffffffffffffffffffffffffffffffffffffffffda80000000000000000000000000000000000000000000000000000000000000258000000000000000000000000000000000000000000000000025913224d3be8910000000000000000000000000000000000000000000000000011c37937e080010000000000000000000000000000000000000000000000056bc75e2d6310000100000000000000000000000019c50bfd73627b35f2ef3f7b0755229d42cd56a800000000000000000000000000000000000000000000000000000000000001800000000000000000000000000000000000000000000000000000000000000000000000000000000000000000000000000000000000000000000000000000004000000000000000000000000000000000000000000000000000000000000000000000000000000000000000005c602c98ad2434c86d83f956bf3b22323dde7f85",
        "1747406326"
      ],
      "transaction": {
        "from": "0x19c50bfd73627b35f2ef3f7b0755229d42cd56a8",
        "to": "0x4b2c77d209d3405f41a037ec6c77f7f5b8e2ca80",
        "gas": "0x4b67b",
        "value": "0x11c37937e08001",
        "input": "0xdd46508f00000000000000000000000000000000000000000000000000000000000000400000000000000000000000000000000000000000000000000000000068274df60000000000000000000000000000000000000000000000000000000000000300000000000000000000000000000000000000000000000000000000000000004000000000000000000000000000000000000000000000000000000000000000800000000000000000000000000000000000000000000000000000000000000002020d00000000000000000000000000000000000000000000000000000000000000000000000000000000000000000000000000000000000000000000000000020000000000000000000000000000000000000000000000000000000000000040000000000000000000000000000000000000000000000000000000000000020000000000000000000000000000000000000000000000000000000000000001a000000000000000000000000000000000000000000000000000000000000000000000000000000000000000005c602c98ad2434c86d83f956bf3b22323dde7f850000000000000000000000000000000000000000000000000000000000000bb8000000000000000000000000000000000000000000000000000000000000003c000000000000000000000000ce7e5acc2e1c3095b52846cf07bafa1b88540040fffffffffffffffffffffffffffffffffffffffffffffffffffffffffffffda80000000000000000000000000000000000000000000000000000000000000258000000000000000000000000000000000000000000000000025913224d3be8910000000000000000000000000000000000000000000000000011c37937e080010000000000000000000000000000000000000000000000056bc75e2d6310000100000000000000000000000019c50bfd73627b35f2ef3f7b0755229d42cd56a800000000000000000000000000000000000000000000000000000000000001800000000000000000000000000000000000000000000000000000000000000000000000000000000000000000000000000000000000000000000000000000004000000000000000000000000000000000000000000000000000000000000000000000000000000000000000005c602c98ad2434c86d83f956bf3b22323dde7f85",
        "nonce": "0x4a",
        "chainId": "0x14a34"
      },
      "additionalContracts": [],
      "isFixedGasLimit": false
    }
  ],
  "receipts": [
    {
      "status": "0x1",
      "cumulativeGasUsed": "0x44340b",
      "logs": [
        {
          "address": "0x5c602c98ad2434c86d83f956bf3b22323dde7f85",
          "topics": [
            "0x8c5be1e5ebec7d5bd14f71427d1e84f3dd0314c0f7b2291e5b200ac8c7c3b925",
            "0x00000000000000000000000019c50bfd73627b35f2ef3f7b0755229d42cd56a8",
            "0x000000000000000000000000000000000022d473030f116ddee9f6b43ac78ba3"
          ],
          "data": "0xffffffffffffffffffffffffffffffffffffffffffffffffffffffffffffffff",
          "blockHash": "0x71f393d93743ddfb8afcc07671ef289762eeb428ba1fffaba975cd61a623f0a6",
          "blockNumber": "0x189f774",
          "transactionHash": "0x3a66bb7b8e9e4547edad114a5cdff5bf30bed45037e02a8903cef2d07078999b",
          "transactionIndex": "0x37",
          "logIndex": "0x3d",
          "removed": false
        }
      ],
      "logsBloom": "0x00000000000000000000000000000000000200000000001000000000000000000000000000000080000000000000000000000000800000010000000000200000000000000000000000004000000000000000000000000800000000000000000000000000000000000000000000000000000000000000000000000000002000000000000000000000000000080000000000000000000000000000000000000000020000000000000000000000000000000000000000000000000000000000000000000000000000000000000000000000000000000000000000000000000000000010000000000000000000000000000000000000000000000000000000000000",
      "type": "0x2",
      "transactionHash": "0x3a66bb7b8e9e4547edad114a5cdff5bf30bed45037e02a8903cef2d07078999b",
      "transactionIndex": "0x37",
      "blockHash": "0x71f393d93743ddfb8afcc07671ef289762eeb428ba1fffaba975cd61a623f0a6",
      "blockNumber": "0x189f774",
      "gasUsed": "0x6aa9",
      "effectiveGasPrice": "0xf5555",
      "from": "0x19c50bfd73627b35f2ef3f7b0755229d42cd56a8",
      "to": "0x5c602c98ad2434c86d83f956bf3b22323dde7f85",
      "contractAddress": null,
      "l1BaseFeeScalar": "0x44d",
      "l1BlobBaseFee": "0x1",
      "l1BlobBaseFeeScalar": "0xa118b",
      "l1Fee": "0x1b9aceb16",
      "l1GasPrice": "0xfab95a4a",
      "l1GasUsed": "0x640"
    },
    {
      "status": "0x1",
      "cumulativeGasUsed": "0x44a119",
      "logs": [
        {
          "address": "0x000000000022d473030f116ddee9f6b43ac78ba3",
          "topics": [
            "0xda9fa7c1b00402c17d0161b249b1ab8bbec047c5a52207b9c112deffd817036b",
            "0x00000000000000000000000019c50bfd73627b35f2ef3f7b0755229d42cd56a8",
            "0x0000000000000000000000005c602c98ad2434c86d83f956bf3b22323dde7f85",
            "0x0000000000000000000000004b2c77d209d3405f41a037ec6c77f7f5b8e2ca80"
          ],
          "data": "0x000000000000000000000000ffffffffffffffffffffffffffffffffffffffff0000000000000000000000000000000000000000000000000000ffffffffffff",
          "blockHash": "0x71f393d93743ddfb8afcc07671ef289762eeb428ba1fffaba975cd61a623f0a6",
          "blockNumber": "0x189f774",
          "transactionHash": "0x106aac8d1c6f53a73e1ebc60df1fdbf0489c6e93aa9bb4790790c4733509daea",
          "transactionIndex": "0x38",
          "logIndex": "0x3e",
          "removed": false
        }
      ],
      "logsBloom": "0x00010000000000010000000000000000000200000000000000000000000000000000000000000080000000000000000000000000000000010008000010080000000000004000000000000000000000000000000000000000000000000000000000000400000000000000000000000000000000000000000000000000000000000020000000000000000000000000000000000000000000000000000000000000000000000000000000000000000000000000000000000000000000080000000000000000000000000002000000000000000000000000000040000000000000000000000000000000000000000000000000000000000000000000000000000400",
      "type": "0x2",
      "transactionHash": "0x106aac8d1c6f53a73e1ebc60df1fdbf0489c6e93aa9bb4790790c4733509daea",
      "transactionIndex": "0x38",
      "blockHash": "0x71f393d93743ddfb8afcc07671ef289762eeb428ba1fffaba975cd61a623f0a6",
      "blockNumber": "0x189f774",
      "gasUsed": "0x6d0e",
      "effectiveGasPrice": "0xf5555",
      "from": "0x19c50bfd73627b35f2ef3f7b0755229d42cd56a8",
      "to": "0x000000000022d473030f116ddee9f6b43ac78ba3",
      "contractAddress": null,
      "l1BaseFeeScalar": "0x44d",
      "l1BlobBaseFee": "0x1",
      "l1BlobBaseFeeScalar": "0xa118b",
      "l1Fee": "0x1ebb8143b",
      "l1GasPrice": "0xfab95a4a",
      "l1GasUsed": "0x6f5"
    },
    {
      "status": "0x1",
      "cumulativeGasUsed": "0x47da0b",
      "logs": [
        {
          "address": "0x4b2c77d209d3405f41a037ec6c77f7f5b8e2ca80",
          "topics": [
            "0xddf252ad1be2c89b69c2b068fc378daa952ba7f163c4a11628f55a4df523b3ef",
            "0x0000000000000000000000000000000000000000000000000000000000000000",
            "0x00000000000000000000000019c50bfd73627b35f2ef3f7b0755229d42cd56a8",
            "0x00000000000000000000000000000000000000000000000000000000000003aa"
          ],
          "data": "0x",
          "blockHash": "0x71f393d93743ddfb8afcc07671ef289762eeb428ba1fffaba975cd61a623f0a6",
          "blockNumber": "0x189f774",
          "transactionHash": "0x1ec60b3ebbf4e6b009fb2e1f3f5565891edcc950103ba5872dc797c403c02323",
          "transactionIndex": "0x39",
          "logIndex": "0x3f",
          "removed": false
        },
        {
          "address": "0x05e73354cfdd6745c338b50bcfdfa3aa6fa03408",
          "topics": [
            "0xf208f4912782fd25c7f114ca3723a2d5dd6f3bcc3ac8db5af63baa85f711d5ec",
            "0x33784058950efb3b4398e3a29fe4e5eef9ff17d50898b5a96839c81abca99b4a",
            "0x0000000000000000000000004b2c77d209d3405f41a037ec6c77f7f5b8e2ca80"
          ],
          "data": "0xfffffffffffffffffffffffffffffffffffffffffffffffffffffffffffffda80000000000000000000000000000000000000000000000000000000000000258000000000000000000000000000000000000000000000000025913224d3be89100000000000000000000000000000000000000000000000000000000000003aa",
          "blockHash": "0x71f393d93743ddfb8afcc07671ef289762eeb428ba1fffaba975cd61a623f0a6",
          "blockNumber": "0x189f774",
          "transactionHash": "0x1ec60b3ebbf4e6b009fb2e1f3f5565891edcc950103ba5872dc797c403c02323",
          "transactionIndex": "0x39",
          "logIndex": "0x40",
          "removed": false
        },
        {
          "address": "0x5c602c98ad2434c86d83f956bf3b22323dde7f85",
          "topics": [
            "0xddf252ad1be2c89b69c2b068fc378daa952ba7f163c4a11628f55a4df523b3ef",
            "0x00000000000000000000000019c50bfd73627b35f2ef3f7b0755229d42cd56a8",
            "0x00000000000000000000000005e73354cfdd6745c338b50bcfdfa3aa6fa03408"
          ],
          "data": "0x0000000000000000000000000000000000000000000000000011c37937e08000",
          "blockHash": "0x71f393d93743ddfb8afcc07671ef289762eeb428ba1fffaba975cd61a623f0a6",
          "blockNumber": "0x189f774",
          "transactionHash": "0x1ec60b3ebbf4e6b009fb2e1f3f5565891edcc950103ba5872dc797c403c02323",
          "transactionIndex": "0x39",
          "logIndex": "0x41",
          "removed": false
        }
      ],
      "logsBloom": "0x00000000000000010000000000000000000200001000001000000000000000000100000100000080000000000000000000000040000000010008000010000800000000000010000000000008000000000000000000100000000000008000000000000000020000000000000000000800000000000000000000000010002000000000000005000000000000080004000000000000000000000000000000000000000004000000000000000000000000000000000000000000000000000400000000000002001000040000000000000000000000000000800000000000000020000000000000000000000000000800000004000000000000000000000000000000",
      "type": "0x2",
      "transactionHash": "0x1ec60b3ebbf4e6b009fb2e1f3f5565891edcc950103ba5872dc797c403c02323",
      "transactionIndex": "0x39",
      "blockHash": "0x71f393d93743ddfb8afcc07671ef289762eeb428ba1fffaba975cd61a623f0a6",
      "blockNumber": "0x189f774",
      "gasUsed": "0x338f2",
      "effectiveGasPrice": "0xf5555",
      "from": "0x19c50bfd73627b35f2ef3f7b0755229d42cd56a8",
      "to": "0x4b2c77d209d3405f41a037ec6c77f7f5b8e2ca80",
      "contractAddress": null,
      "l1BaseFeeScalar": "0x44d",
      "l1BlobBaseFee": "0x1",
      "l1BlobBaseFeeScalar": "0xa118b",
      "l1Fee": "0x45fcdbbfb",
      "l1GasPrice": "0xfab95a4a",
      "l1GasUsed": "0xfd8"
    }
  ],
  "libraries": [],
  "pending": [],
  "returns": {},
  "timestamp": 1747406280,
  "chain": 84532,
  "commit": "18ecf0c"
}