{
  "transactions": [
    {
      "hash": "0xf3ecb0cc61296a7f9cbc7adc82b618cc60b330c69ee48176baab25e98f0eb21d",
      "transactionType": "CALL",
      "contractName": null,
      "contractAddress": "0xf51980a3455732b35852362e8a749ac67399fadf",
      "function": "approve(address,uint256)",
      "arguments": [
        "0x000000000022D473030F116dDEE9F6B43aC78BA3",
        "115792089237316195423570985008687907853269984665640564039457584007913129639935"
      ],
      "transaction": {
        "from": "0x19c50bfd73627b35f2ef3f7b0755229d42cd56a8",
        "to": "0xf51980a3455732b35852362e8a749ac67399fadf",
        "gas": "0x9bfd",
        "value": "0x0",
        "input": "0x095ea7b3000000000000000000000000000000000022d473030f116ddee9f6b43ac78ba3ffffffffffffffffffffffffffffffffffffffffffffffffffffffffffffffff",
        "nonce": "0x66",
        "chainId": "0x14a34"
      },
      "additionalContracts": [],
      "isFixedGasLimit": false
    },
    {
      "hash": "0x961b7e5bd85a106a31c5b5832587a30d6e4862b06a2395c53b0b0e3ce0d6b296",
      "transactionType": "CALL",
      "contractName": null,
      "contractAddress": "0x000000000022d473030f116ddee9f6b43ac78ba3",
      "function": "approve(address,address,uint160,uint48)",
      "arguments": [
        "0xF51980A3455732B35852362E8a749ac67399FAdF",
        "0x4B2C77d209D3405F41a037Ec6c77F7F5b8e2ca80",
        "1461501637330902918203684832716283019655932542975",
        "281474976710655"
      ],
      "transaction": {
        "from": "0x19c50bfd73627b35f2ef3f7b0755229d42cd56a8",
        "to": "0x000000000022d473030f116ddee9f6b43ac78ba3",
        "gas": "0x96a0",
        "value": "0x0",
        "input": "0x87517c45000000000000000000000000f51980a3455732b35852362e8a749ac67399fadf0000000000000000000000004b2c77d209d3405f41a037ec6c77f7f5b8e2ca80000000000000000000000000ffffffffffffffffffffffffffffffffffffffff0000000000000000000000000000000000000000000000000000ffffffffffff",
        "nonce": "0x67",
        "chainId": "0x14a34"
      },
      "additionalContracts": [],
      "isFixedGasLimit": false
    },
    {
      "hash": "0xd29784f0c4739a31153a6d28da4941fcf17c7ecb9e72d5b1eaf1c79cfd23e64d",
      "transactionType": "CALL",
      "contractName": null,
      "contractAddress": "0x4b2c77d209d3405f41a037ec6c77f7f5b8e2ca80",
      "function": "modifyLiquidities(bytes,uint256)",
      "arguments": [
        "0x000000000000000000000000000000000000000000000000000000000000004000000000000000000000000000000000000000000000000000000000000000800000000000000000000000000000000000000000000000000000000000000002020d00000000000000000000000000000000000000000000000000000000000000000000000000000000000000000000000000000000000000000000000000020000000000000000000000000000000000000000000000000000000000000040000000000000000000000000000000000000000000000000000000000000020000000000000000000000000000000000000000000000000000000000000001a00000000000000000000000000000000000000000000000000000000000000000000000000000000000000000f51980a3455732b35852362e8a749ac67399fadf0000000000000000000000000000000000000000000000000000000000000bb8000000000000000000000000000000000000000000000000000000000000003c000000000000000000000000ce7e5acc2e1c3095b52846cf07bafa1b88540040fffffffffffffffffffffffffffffffffffffffffffffffffffffffffffffda80000000000000000000000000000000000000000000000000000000000000258000000000000000000000000000000000000000000000000012807a5d13b97810000000000000000000000000000000000000000000000000011c37937e080010000000000000000000000000000000000000000000000056bc75e2d6310000100000000000000000000000019c50bfd73627b35f2ef3f7b0755229d42cd56a80000000000000000000000000000000000000000000000000000000000000180000000000000000000000000000000000000000000000000000000000000000000000000000000000000000000000000000000000000000000000000000000400000000000000000000000000000000000000000000000000000000000000000000000000000000000000000f51980a3455732b35852362e8a749ac67399fadf",
        "1747418242"
      ],
      "transaction": {
        "from": "0x19c50bfd73627b35f2ef3f7b0755229d42cd56a8",
        "to": "0x4b2c77d209d3405f41a037ec6c77f7f5b8e2ca80",
        "gas": "0x3c78b",
        "value": "0x11c37937e08001",
        "input": "0xdd46508f00000000000000000000000000000000000000000000000000000000000000400000000000000000000000000000000000000000000000000000000068277c820000000000000000000000000000000000000000000000000000000000000300000000000000000000000000000000000000000000000000000000000000004000000000000000000000000000000000000000000000000000000000000000800000000000000000000000000000000000000000000000000000000000000002020d00000000000000000000000000000000000000000000000000000000000000000000000000000000000000000000000000000000000000000000000000020000000000000000000000000000000000000000000000000000000000000040000000000000000000000000000000000000000000000000000000000000020000000000000000000000000000000000000000000000000000000000000001a00000000000000000000000000000000000000000000000000000000000000000000000000000000000000000f51980a3455732b35852362e8a749ac67399fadf0000000000000000000000000000000000000000000000000000000000000bb8000000000000000000000000000000000000000000000000000000000000003c000000000000000000000000ce7e5acc2e1c3095b52846cf07bafa1b88540040fffffffffffffffffffffffffffffffffffffffffffffffffffffffffffffda80000000000000000000000000000000000000000000000000000000000000258000000000000000000000000000000000000000000000000012807a5d13b97810000000000000000000000000000000000000000000000000011c37937e080010000000000000000000000000000000000000000000000056bc75e2d6310000100000000000000000000000019c50bfd73627b35f2ef3f7b0755229d42cd56a80000000000000000000000000000000000000000000000000000000000000180000000000000000000000000000000000000000000000000000000000000000000000000000000000000000000000000000000000000000000000000000000400000000000000000000000000000000000000000000000000000000000000000000000000000000000000000f51980a3455732b35852362e8a749ac67399fadf",
        "nonce": "0x68",
        "chainId": "0x14a34"
      },
      "additionalContracts": [],
      "isFixedGasLimit": false
    }
  ],
  "receipts": [
    {
      "status": "0x1",
      "cumulativeGasUsed": "0x5cc5b",
      "logs": [
        {
          "address": "0xf51980a3455732b35852362e8a749ac67399fadf",
          "topics": [
            "0x8c5be1e5ebec7d5bd14f71427d1e84f3dd0314c0f7b2291e5b200ac8c7c3b925",
            "0x00000000000000000000000019c50bfd73627b35f2ef3f7b0755229d42cd56a8",
            "0x000000000000000000000000000000000022d473030f116ddee9f6b43ac78ba3"
          ],
          "data": "0xffffffffffffffffffffffffffffffffffffffffffffffffffffffffffffffff",
          "blockHash": "0x8b93579a1f35964add2e2560254c520cff38777bcdfc826aa353d69028ad0c37",
          "blockNumber": "0x18a0eba",
          "blockTimestamp": "0x68277c54",
          "transactionHash": "0xf3ecb0cc61296a7f9cbc7adc82b618cc60b330c69ee48176baab25e98f0eb21d",
          "transactionIndex": "0x4",
          "logIndex": "0x7",
          "removed": false
        }
      ],
      "logsBloom": "0x00000000000000000000000000000000000200000000000000000000000000000000000000000080000000000000000000000000800000010000000000200000000000000000000000004000000000000800000000000800000000000000000000000000000000000000000000000200000000000000000000000000000000000000000000000000000000000000000000000000000000000000000000000000020200000000000000000000000000000000000000000000000000000000000000000000000000000000000000000000000000000000000000000000000000000010000000000000000000000000000000000000000000000000000000000000",
      "type": "0x2",
      "transactionHash": "0xf3ecb0cc61296a7f9cbc7adc82b618cc60b330c69ee48176baab25e98f0eb21d",
      "transactionIndex": "0x4",
      "blockHash": "0x8b93579a1f35964add2e2560254c520cff38777bcdfc826aa353d69028ad0c37",
      "blockNumber": "0x18a0eba",
      "gasUsed": "0x6aa9",
      "effectiveGasPrice": "0xf45dc",
      "from": "0x19c50bfd73627b35f2ef3f7b0755229d42cd56a8",
      "to": "0xf51980a3455732b35852362e8a749ac67399fadf",
      "contractAddress": null,
      "l1BaseFeeScalar": "0x44d",
      "l1BlobBaseFee": "0x1",
      "l1BlobBaseFeeScalar": "0xa118b",
      "l1Fee": "0xc25be4b9a",
      "l1GasPrice": "0x6e54b78aa",
      "l1GasUsed": "0x640"
    },
    {
      "status": "0x1",
      "cumulativeGasUsed": "0x63969",
      "logs": [
        {
          "address": "0x000000000022d473030f116ddee9f6b43ac78ba3",
          "topics": [
            "0xda9fa7c1b00402c17d0161b249b1ab8bbec047c5a52207b9c112deffd817036b",
            "0x00000000000000000000000019c50bfd73627b35f2ef3f7b0755229d42cd56a8",
            "0x000000000000000000000000f51980a3455732b35852362e8a749ac67399fadf",
            "0x0000000000000000000000004b2c77d209d3405f41a037ec6c77f7f5b8e2ca80"
          ],
          "data": "0x000000000000000000000000ffffffffffffffffffffffffffffffffffffffff0000000000000000000000000000000000000000000000000000ffffffffffff",
          "blockHash": "0x8b93579a1f35964add2e2560254c520cff38777bcdfc826aa353d69028ad0c37",
          "blockNumber": "0x18a0eba",
          "blockTimestamp": "0x68277c54",
          "transactionHash": "0x961b7e5bd85a106a31c5b5832587a30d6e4862b06a2395c53b0b0e3ce0d6b296",
          "transactionIndex": "0x5",
          "logIndex": "0x8",
          "removed": false
        }
      ],
      "logsBloom": "0x00010000000000010000000000000000000200000000000000000000000000000000000000000080000000000000000000000000000000010008000010080000000000000000000000000000000000000000000000000000000000000000000000000000000000000000000000000000000000000000000200000000000000000020020000000000000000000001000000000000000000000000000000000000000000000000000000000000000000000000000000000000000000080000000000000000000000000000000000000000000000000000000040000000000000000000000000000000000000000000000000000000000000000000000000000400",
      "type": "0x2",
      "transactionHash": "0x961b7e5bd85a106a31c5b5832587a30d6e4862b06a2395c53b0b0e3ce0d6b296",
      "transactionIndex": "0x5",
      "blockHash": "0x8b93579a1f35964add2e2560254c520cff38777bcdfc826aa353d69028ad0c37",
      "blockNumber": "0x18a0eba",
      "gasUsed": "0x6d0e",
      "effectiveGasPrice": "0xf45dc",
      "from": "0x19c50bfd73627b35f2ef3f7b0755229d42cd56a8",
      "to": "0x000000000022d473030f116ddee9f6b43ac78ba3",
      "contractAddress": null,
      "l1BaseFeeScalar": "0x44d",
      "l1BlobBaseFee": "0x1",
      "l1BlobBaseFeeScalar": "0xa118b",
      "l1Fee": "0xd8616f69f",
      "l1GasPrice": "0x6e54b78aa",
      "l1GasUsed": "0x6f5"
    },
    {
      "status": "0x1",
      "cumulativeGasUsed": "0x8cefb",
      "logs": [
        {
          "address": "0x4b2c77d209d3405f41a037ec6c77f7f5b8e2ca80",
          "topics": [
            "0xddf252ad1be2c89b69c2b068fc378daa952ba7f163c4a11628f55a4df523b3ef",
            "0x0000000000000000000000000000000000000000000000000000000000000000",
            "0x00000000000000000000000019c50bfd73627b35f2ef3f7b0755229d42cd56a8",
            "0x00000000000000000000000000000000000000000000000000000000000003ad"
          ],
          "data": "0x",
          "blockHash": "0x8b93579a1f35964add2e2560254c520cff38777bcdfc826aa353d69028ad0c37",
          "blockNumber": "0x18a0eba",
          "blockTimestamp": "0x68277c54",
          "transactionHash": "0xd29784f0c4739a31153a6d28da4941fcf17c7ecb9e72d5b1eaf1c79cfd23e64d",
          "transactionIndex": "0x6",
          "logIndex": "0x9",
          "removed": false
        },
        {
          "address": "0x05e73354cfdd6745c338b50bcfdfa3aa6fa03408",
          "topics": [
            "0xf208f4912782fd25c7f114ca3723a2d5dd6f3bcc3ac8db5af63baa85f711d5ec",
            "0x5c1ade81a409fdfcf53fff5e026b946ac95a0086f73c965c1f01bc6fd7648fb3",
            "0x0000000000000000000000004b2c77d209d3405f41a037ec6c77f7f5b8e2ca80"
          ],
          "data": "0xfffffffffffffffffffffffffffffffffffffffffffffffffffffffffffffda80000000000000000000000000000000000000000000000000000000000000258000000000000000000000000000000000000000000000000012807a5d13b978100000000000000000000000000000000000000000000000000000000000003ad",
          "blockHash": "0x8b93579a1f35964add2e2560254c520cff38777bcdfc826aa353d69028ad0c37",
          "blockNumber": "0x18a0eba",
          "blockTimestamp": "0x68277c54",
          "transactionHash": "0xd29784f0c4739a31153a6d28da4941fcf17c7ecb9e72d5b1eaf1c79cfd23e64d",
          "transactionIndex": "0x6",
          "logIndex": "0xa",
          "removed": false
        }
      ],
      "logsBloom": "0x00000000000000010000000000000000000200000000000000000000000000000100000100000080000000000000000000000080000000010008000010000800000000400000000000000008000000000000000000000000000000008000000000000000020000000000000000000800000000000000000000000010000000000000000005000000000000000000000000000000000000000000000000000000000004000000000000000002000000000000000000000002000000000000000000000002001000000000000000000002000000000000000000000000000020000000000000000000000000000000000004000000000000000000000000004000",
      "type": "0x2",
      "transactionHash": "0xd29784f0c4739a31153a6d28da4941fcf17c7ecb9e72d5b1eaf1c79cfd23e64d",
      "transactionIndex": "0x6",
      "blockHash": "0x8b93579a1f35964add2e2560254c520cff38777bcdfc826aa353d69028ad0c37",
      "blockNumber": "0x18a0eba",
      "gasUsed": "0x29592",
      "effectiveGasPrice": "0xf45dc",
      "from": "0x19c50bfd73627b35f2ef3f7b0755229d42cd56a8",
      "to": "0x4b2c77d209d3405f41a037ec6c77f7f5b8e2ca80",
      "contractAddress": null,
      "l1BaseFeeScalar": "0x44d",
      "l1BlobBaseFee": "0x1",
      "l1BlobBaseFeeScalar": "0xa118b",
      "l1Fee": "0x1ecc4cdb24",
      "l1GasPrice": "0x6e54b78aa",
      "l1GasUsed": "0xfd8"
    }
  ],
  "libraries": [],
  "pending": [],
  "returns": {},
  "timestamp": 1747418191,
  "chain": 84532,
  "commit": "18ecf0c"
}